{
	"LAB 2/Sharedwallet.sol": {
		"SharedWallet": {
			"abi": [
				{
					"anonymous": false,
					"inputs": [
						{
							"indexed": true,
							"internalType": "address",
							"name": "_forWho",
							"type": "address"
						},
						{
							"indexed": true,
							"internalType": "address",
							"name": "_byWhom",
							"type": "address"
						},
						{
							"indexed": false,
							"internalType": "uint256",
							"name": "_oldAmount",
							"type": "uint256"
						},
						{
							"indexed": false,
							"internalType": "uint256",
							"name": "_newAmount",
							"type": "uint256"
						}
					],
					"name": "AllowanceChanged",
					"type": "event"
				},
				{
					"anonymous": false,
					"inputs": [
						{
							"indexed": true,
							"internalType": "address",
							"name": "_from",
							"type": "address"
						},
						{
							"indexed": false,
							"internalType": "uint256",
							"name": "_amount",
							"type": "uint256"
						}
					],
					"name": "MoneyReceived",
					"type": "event"
				},
				{
					"anonymous": false,
					"inputs": [
						{
							"indexed": true,
							"internalType": "address",
							"name": "_beneficiary",
							"type": "address"
						},
						{
							"indexed": false,
							"internalType": "uint256",
							"name": "_amount",
							"type": "uint256"
						}
					],
					"name": "MoneySent",
					"type": "event"
				},
				{
					"anonymous": false,
					"inputs": [
						{
							"indexed": true,
							"internalType": "address",
							"name": "previousOwner",
							"type": "address"
						},
						{
							"indexed": true,
							"internalType": "address",
							"name": "newOwner",
							"type": "address"
						}
					],
					"name": "OwnershipTransferred",
					"type": "event"
				},
				{
					"inputs": [
						{
							"internalType": "address",
							"name": "",
							"type": "address"
						}
					],
					"name": "allowance",
					"outputs": [
						{
							"internalType": "uint256",
							"name": "",
							"type": "uint256"
						}
					],
					"stateMutability": "view",
					"type": "function"
				},
				{
					"inputs": [],
					"name": "owner",
					"outputs": [
						{
							"internalType": "address",
							"name": "",
							"type": "address"
						}
					],
					"stateMutability": "view",
					"type": "function"
				},
				{
					"inputs": [],
					"name": "renounceOwnership",
					"outputs": [],
					"stateMutability": "nonpayable",
					"type": "function"
				},
				{
					"inputs": [
						{
							"internalType": "address",
							"name": "_who",
							"type": "address"
						},
						{
							"internalType": "uint256",
							"name": "_amount",
							"type": "uint256"
						}
					],
					"name": "setAllowance",
					"outputs": [],
					"stateMutability": "nonpayable",
					"type": "function"
				},
				{
					"inputs": [
						{
							"internalType": "address",
							"name": "newOwner",
							"type": "address"
						}
					],
					"name": "transferOwnership",
					"outputs": [],
					"stateMutability": "nonpayable",
					"type": "function"
				},
				{
					"inputs": [
						{
							"internalType": "address payable",
							"name": "_to",
							"type": "address"
						},
						{
							"internalType": "uint256",
							"name": "_amount",
							"type": "uint256"
						}
					],
					"name": "withdrawMoney",
					"outputs": [],
					"stateMutability": "nonpayable",
					"type": "function"
				},
				{
					"stateMutability": "payable",
					"type": "receive"
				}
			],
			"devdoc": {
				"kind": "dev",
				"methods": {
					"owner()": {
						"details": "Returns the address of the current owner."
					},
					"renounceOwnership()": {
						"details": "Leaves the contract without owner. It will not be possible to call `onlyOwner` functions anymore. Can only be called by the current owner. NOTE: Renouncing ownership will leave the contract without an owner, thereby removing any functionality that is only available to the owner."
					},
					"transferOwnership(address)": {
						"details": "Transfers ownership of the contract to a new account (`newOwner`). Can only be called by the current owner."
					}
				},
				"version": 1
			},
			"evm": {
				"assembly": "    /* \"LAB 2/Sharedwallet.sol\":81:834  contract SharedWallet is Allowance {... */\n  mstore(0x40, 0x80)\n  callvalue\n  dup1\n  iszero\n  tag_1\n  jumpi\n  0x00\n  dup1\n  revert\ntag_1:\n  pop\n    /* \"https://github.com/OpenZeppelin/openzeppelin-contracts/blob/master/contracts/access/Ownable.sol\":921:953  _transferOwnership(_msgSender()) */\n  tag_4\n    /* \"https://github.com/OpenZeppelin/openzeppelin-contracts/blob/master/contracts/access/Ownable.sol\":940:952  _msgSender() */\n  tag_5\n    /* \"https://github.com/OpenZeppelin/openzeppelin-contracts/blob/master/contracts/access/Ownable.sol\":940:950  _msgSender */\n  shl(0x20, tag_6)\n    /* \"https://github.com/OpenZeppelin/openzeppelin-contracts/blob/master/contracts/access/Ownable.sol\":940:952  _msgSender() */\n  0x20\n  shr\n  jump\t// in\ntag_5:\n    /* \"https://github.com/OpenZeppelin/openzeppelin-contracts/blob/master/contracts/access/Ownable.sol\":921:939  _transferOwnership */\n  shl(0x20, tag_7)\n    /* \"https://github.com/OpenZeppelin/openzeppelin-contracts/blob/master/contracts/access/Ownable.sol\":921:953  _transferOwnership(_msgSender()) */\n  0x20\n  shr\n  jump\t// in\ntag_4:\n    /* \"LAB 2/Sharedwallet.sol\":81:834  contract SharedWallet is Allowance {... */\n  jump(tag_8)\n    /* \"https://github.com/OpenZeppelin/openzeppelin-contracts/blob/master/contracts/utils/Context.sol\":640:736  function _msgSender() internal view virtual returns (address) {... */\ntag_6:\n    /* \"https://github.com/OpenZeppelin/openzeppelin-contracts/blob/master/contracts/utils/Context.sol\":693:700  address */\n  0x00\n    /* \"https://github.com/OpenZeppelin/openzeppelin-contracts/blob/master/contracts/utils/Context.sol\":719:729  msg.sender */\n  caller\n    /* \"https://github.com/OpenZeppelin/openzeppelin-contracts/blob/master/contracts/utils/Context.sol\":712:729  return msg.sender */\n  swap1\n  pop\n    /* \"https://github.com/OpenZeppelin/openzeppelin-contracts/blob/master/contracts/utils/Context.sol\":640:736  function _msgSender() internal view virtual returns (address) {... */\n  swap1\n  jump\t// out\n    /* \"https://github.com/OpenZeppelin/openzeppelin-contracts/blob/master/contracts/access/Ownable.sol\":2270:2457  function _transferOwnership(address newOwner) internal virtual {... */\ntag_7:\n    /* \"https://github.com/OpenZeppelin/openzeppelin-contracts/blob/master/contracts/access/Ownable.sol\":2343:2359  address oldOwner */\n  0x00\n    /* \"https://github.com/OpenZeppelin/openzeppelin-contracts/blob/master/contracts/access/Ownable.sol\":2362:2368  _owner */\n  dup1\n  0x00\n  swap1\n  sload\n  swap1\n  0x0100\n  exp\n  swap1\n  div\n  0xffffffffffffffffffffffffffffffffffffffff\n  and\n    /* \"https://github.com/OpenZeppelin/openzeppelin-contracts/blob/master/contracts/access/Ownable.sol\":2343:2368  address oldOwner = _owner */\n  swap1\n  pop\n    /* \"https://github.com/OpenZeppelin/openzeppelin-contracts/blob/master/contracts/access/Ownable.sol\":2387:2395  newOwner */\n  dup2\n    /* \"https://github.com/OpenZeppelin/openzeppelin-contracts/blob/master/contracts/access/Ownable.sol\":2378:2384  _owner */\n  0x00\n  dup1\n    /* \"https://github.com/OpenZeppelin/openzeppelin-contracts/blob/master/contracts/access/Ownable.sol\":2378:2395  _owner = newOwner */\n  0x0100\n  exp\n  dup2\n  sload\n  dup2\n  0xffffffffffffffffffffffffffffffffffffffff\n  mul\n  not\n  and\n  swap1\n  dup4\n  0xffffffffffffffffffffffffffffffffffffffff\n  and\n  mul\n  or\n  swap1\n  sstore\n  pop\n    /* \"https://github.com/OpenZeppelin/openzeppelin-contracts/blob/master/contracts/access/Ownable.sol\":2441:2449  newOwner */\n  dup2\n    /* \"https://github.com/OpenZeppelin/openzeppelin-contracts/blob/master/contracts/access/Ownable.sol\":2410:2450  OwnershipTransferred(oldOwner, newOwner) */\n  0xffffffffffffffffffffffffffffffffffffffff\n  and\n    /* \"https://github.com/OpenZeppelin/openzeppelin-contracts/blob/master/contracts/access/Ownable.sol\":2431:2439  oldOwner */\n  dup2\n    /* \"https://github.com/OpenZeppelin/openzeppelin-contracts/blob/master/contracts/access/Ownable.sol\":2410:2450  OwnershipTransferred(oldOwner, newOwner) */\n  0xffffffffffffffffffffffffffffffffffffffff\n  and\n  0x8be0079c531659141344cd1fd0a4f28419497f9722a3daafe3b4186f6b6457e0\n  mload(0x40)\n  mload(0x40)\n  dup1\n  swap2\n  sub\n  swap1\n  log3\n    /* \"https://github.com/OpenZeppelin/openzeppelin-contracts/blob/master/contracts/access/Ownable.sol\":2333:2457  {... */\n  pop\n    /* \"https://github.com/OpenZeppelin/openzeppelin-contracts/blob/master/contracts/access/Ownable.sol\":2270:2457  function _transferOwnership(address newOwner) internal virtual {... */\n  pop\n  jump\t// out\n    /* \"LAB 2/Sharedwallet.sol\":81:834  contract SharedWallet is Allowance {... */\ntag_8:\n  dataSize(sub_0)\n  dup1\n  dataOffset(sub_0)\n  0x00\n  codecopy\n  0x00\n  return\nstop\n\nsub_0: assembly {\n        /* \"LAB 2/Sharedwallet.sol\":81:834  contract SharedWallet is Allowance {... */\n      mstore(0x40, 0x80)\n      jumpi(tag_1, lt(calldatasize, 0x04))\n      shr(0xe0, calldataload(0x00))\n      dup1\n      0x310ec4a7\n      eq\n      tag_3\n      jumpi\n      dup1\n      0x3e5beab9\n      eq\n      tag_4\n      jumpi\n      dup1\n      0x715018a6\n      eq\n      tag_5\n      jumpi\n      dup1\n      0x8da5cb5b\n      eq\n      tag_6\n      jumpi\n      dup1\n      0xf274c897\n      eq\n      tag_7\n      jumpi\n      dup1\n      0xf2fde38b\n      eq\n      tag_8\n      jumpi\n      jump(tag_2)\n    tag_1:\n      jumpi(tag_2, calldatasize)\n        /* \"LAB 2/Sharedwallet.sol\":803:813  msg.sender */\n      caller\n        /* \"LAB 2/Sharedwallet.sol\":789:825  MoneyReceived(msg.sender, msg.value) */\n      0xffffffffffffffffffffffffffffffffffffffff\n      and\n      0x27b15ed4cf832749ed39f33a64e4707ed60a761485e41ffec7343ecaddc0c02a\n        /* \"LAB 2/Sharedwallet.sol\":815:824  msg.value */\n      callvalue\n        /* \"LAB 2/Sharedwallet.sol\":789:825  MoneyReceived(msg.sender, msg.value) */\n      mload(0x40)\n      tag_11\n      swap2\n      swap1\n      tag_12\n      jump\t// in\n    tag_11:\n      mload(0x40)\n      dup1\n      swap2\n      sub\n      swap1\n      log2\n        /* \"LAB 2/Sharedwallet.sol\":81:834  contract SharedWallet is Allowance {... */\n      stop\n    tag_2:\n      0x00\n      dup1\n      revert\n        /* \"LAB 2/Allowance.sol\":453:637  function setAllowance(address _who, uint _amount) public onlyOwner {... */\n    tag_3:\n      callvalue\n      dup1\n      iszero\n      tag_13\n      jumpi\n      0x00\n      dup1\n      revert\n    tag_13:\n      pop\n      tag_14\n      0x04\n      dup1\n      calldatasize\n      sub\n      dup2\n      add\n      swap1\n      tag_15\n      swap2\n      swap1\n      tag_16\n      jump\t// in\n    tag_15:\n      tag_17\n      jump\t// in\n    tag_14:\n      stop\n        /* \"LAB 2/Allowance.sol\":309:350  mapping(address => uint) public allowance */\n    tag_4:\n      callvalue\n      dup1\n      iszero\n      tag_18\n      jumpi\n      0x00\n      dup1\n      revert\n    tag_18:\n      pop\n      tag_19\n      0x04\n      dup1\n      calldatasize\n      sub\n      dup2\n      add\n      swap1\n      tag_20\n      swap2\n      swap1\n      tag_21\n      jump\t// in\n    tag_20:\n      tag_22\n      jump\t// in\n    tag_19:\n      mload(0x40)\n      tag_23\n      swap2\n      swap1\n      tag_12\n      jump\t// in\n    tag_23:\n      mload(0x40)\n      dup1\n      swap2\n      sub\n      swap1\n      return\n        /* \"LAB 2/Sharedwallet.sol\":592:742  function renounceOwnership() public override onlyOwner {... */\n    tag_5:\n      callvalue\n      dup1\n      iszero\n      tag_24\n      jumpi\n      0x00\n      dup1\n      revert\n    tag_24:\n      pop\n      tag_25\n      tag_26\n      jump\t// in\n    tag_25:\n      stop\n        /* \"https://github.com/OpenZeppelin/openzeppelin-contracts/blob/master/contracts/access/Ownable.sol\":1036:1121  function owner() public view virtual returns (address) {... */\n    tag_6:\n      callvalue\n      dup1\n      iszero\n      tag_27\n      jumpi\n      0x00\n      dup1\n      revert\n    tag_27:\n      pop\n      tag_28\n      tag_29\n      jump\t// in\n    tag_28:\n      mload(0x40)\n      tag_30\n      swap2\n      swap1\n      tag_31\n      jump\t// in\n    tag_30:\n      mload(0x40)\n      dup1\n      swap2\n      sub\n      swap1\n      return\n        /* \"LAB 2/Sharedwallet.sol\":249:587  function withdrawMoney(address payable _to, uint _amount) public ownerOrAllowed(_amount) {... */\n    tag_7:\n      callvalue\n      dup1\n      iszero\n      tag_32\n      jumpi\n      0x00\n      dup1\n      revert\n    tag_32:\n      pop\n      tag_33\n      0x04\n      dup1\n      calldatasize\n      sub\n      dup2\n      add\n      swap1\n      tag_34\n      swap2\n      swap1\n      tag_35\n      jump\t// in\n    tag_34:\n      tag_36\n      jump\t// in\n    tag_33:\n      stop\n        /* \"https://github.com/OpenZeppelin/openzeppelin-contracts/blob/master/contracts/access/Ownable.sol\":1918:2116  function transferOwnership(address newOwner) public virtual onlyOwner {... */\n    tag_8:\n      callvalue\n      dup1\n      iszero\n      tag_37\n      jumpi\n      0x00\n      dup1\n      revert\n    tag_37:\n      pop\n      tag_38\n      0x04\n      dup1\n      calldatasize\n      sub\n      dup2\n      add\n      swap1\n      tag_39\n      swap2\n      swap1\n      tag_21\n      jump\t// in\n    tag_39:\n      tag_40\n      jump\t// in\n    tag_38:\n      stop\n        /* \"LAB 2/Allowance.sol\":453:637  function setAllowance(address _who, uint _amount) public onlyOwner {... */\n    tag_17:\n        /* \"https://github.com/OpenZeppelin/openzeppelin-contracts/blob/master/contracts/access/Ownable.sol\":1259:1271  _msgSender() */\n      tag_42\n        /* \"https://github.com/OpenZeppelin/openzeppelin-contracts/blob/master/contracts/access/Ownable.sol\":1259:1269  _msgSender */\n      tag_43\n        /* \"https://github.com/OpenZeppelin/openzeppelin-contracts/blob/master/contracts/access/Ownable.sol\":1259:1271  _msgSender() */\n      jump\t// in\n    tag_42:\n        /* \"https://github.com/OpenZeppelin/openzeppelin-contracts/blob/master/contracts/access/Ownable.sol\":1248:1271  owner() == _msgSender() */\n      0xffffffffffffffffffffffffffffffffffffffff\n      and\n        /* \"https://github.com/OpenZeppelin/openzeppelin-contracts/blob/master/contracts/access/Ownable.sol\":1248:1255  owner() */\n      tag_44\n        /* \"https://github.com/OpenZeppelin/openzeppelin-contracts/blob/master/contracts/access/Ownable.sol\":1248:1253  owner */\n      tag_29\n        /* \"https://github.com/OpenZeppelin/openzeppelin-contracts/blob/master/contracts/access/Ownable.sol\":1248:1255  owner() */\n      jump\t// in\n    tag_44:\n        /* \"https://github.com/OpenZeppelin/openzeppelin-contracts/blob/master/contracts/access/Ownable.sol\":1248:1271  owner() == _msgSender() */\n      0xffffffffffffffffffffffffffffffffffffffff\n      and\n      eq\n        /* \"https://github.com/OpenZeppelin/openzeppelin-contracts/blob/master/contracts/access/Ownable.sol\":1240:1308  require(owner() == _msgSender(), \"Ownable: caller is not the owner\") */\n      tag_45\n      jumpi\n      mload(0x40)\n      0x08c379a000000000000000000000000000000000000000000000000000000000\n      dup2\n      mstore\n      0x04\n      add\n      tag_46\n      swap1\n      tag_47\n      jump\t// in\n    tag_46:\n      mload(0x40)\n      dup1\n      swap2\n      sub\n      swap1\n      revert\n    tag_45:\n        /* \"LAB 2/Allowance.sol\":558:568  msg.sender */\n      caller\n        /* \"LAB 2/Allowance.sol\":535:595  AllowanceChanged(_who, msg.sender, allowance[_who], _amount) */\n      0xffffffffffffffffffffffffffffffffffffffff\n      and\n        /* \"LAB 2/Allowance.sol\":552:556  _who */\n      dup3\n        /* \"LAB 2/Allowance.sol\":535:595  AllowanceChanged(_who, msg.sender, allowance[_who], _amount) */\n      0xffffffffffffffffffffffffffffffffffffffff\n      and\n      0x3691d1a86d99355e52b689ca70a7bdf6d80763237a6aa06e5fa43964eac7244b\n        /* \"LAB 2/Allowance.sol\":570:579  allowance */\n      0x01\n        /* \"LAB 2/Allowance.sol\":570:585  allowance[_who] */\n      0x00\n        /* \"LAB 2/Allowance.sol\":580:584  _who */\n      dup7\n        /* \"LAB 2/Allowance.sol\":570:585  allowance[_who] */\n      0xffffffffffffffffffffffffffffffffffffffff\n      and\n      0xffffffffffffffffffffffffffffffffffffffff\n      and\n      dup2\n      mstore\n      0x20\n      add\n      swap1\n      dup2\n      mstore\n      0x20\n      add\n      0x00\n      keccak256\n      sload\n        /* \"LAB 2/Allowance.sol\":587:594  _amount */\n      dup5\n        /* \"LAB 2/Allowance.sol\":535:595  AllowanceChanged(_who, msg.sender, allowance[_who], _amount) */\n      mload(0x40)\n      tag_49\n      swap3\n      swap2\n      swap1\n      tag_50\n      jump\t// in\n    tag_49:\n      mload(0x40)\n      dup1\n      swap2\n      sub\n      swap1\n      log3\n        /* \"LAB 2/Allowance.sol\":623:630  _amount */\n      dup1\n        /* \"LAB 2/Allowance.sol\":605:614  allowance */\n      0x01\n        /* \"LAB 2/Allowance.sol\":605:620  allowance[_who] */\n      0x00\n        /* \"LAB 2/Allowance.sol\":615:619  _who */\n      dup5\n        /* \"LAB 2/Allowance.sol\":605:620  allowance[_who] */\n      0xffffffffffffffffffffffffffffffffffffffff\n      and\n      0xffffffffffffffffffffffffffffffffffffffff\n      and\n      dup2\n      mstore\n      0x20\n      add\n      swap1\n      dup2\n      mstore\n      0x20\n      add\n      0x00\n      keccak256\n        /* \"LAB 2/Allowance.sol\":605:630  allowance[_who] = _amount */\n      dup2\n      swap1\n      sstore\n      pop\n        /* \"LAB 2/Allowance.sol\":453:637  function setAllowance(address _who, uint _amount) public onlyOwner {... */\n      pop\n      pop\n      jump\t// out\n        /* \"LAB 2/Allowance.sol\":309:350  mapping(address => uint) public allowance */\n    tag_22:\n      mstore(0x20, 0x01)\n      dup1\n      0x00\n      mstore\n      keccak256(0x00, 0x40)\n      0x00\n      swap2\n      pop\n      swap1\n      pop\n      sload\n      dup2\n      jump\t// out\n        /* \"LAB 2/Sharedwallet.sol\":592:742  function renounceOwnership() public override onlyOwner {... */\n    tag_26:\n        /* \"https://github.com/OpenZeppelin/openzeppelin-contracts/blob/master/contracts/access/Ownable.sol\":1259:1271  _msgSender() */\n      tag_52\n        /* \"https://github.com/OpenZeppelin/openzeppelin-contracts/blob/master/contracts/access/Ownable.sol\":1259:1269  _msgSender */\n      tag_43\n        /* \"https://github.com/OpenZeppelin/openzeppelin-contracts/blob/master/contracts/access/Ownable.sol\":1259:1271  _msgSender() */\n      jump\t// in\n    tag_52:\n        /* \"https://github.com/OpenZeppelin/openzeppelin-contracts/blob/master/contracts/access/Ownable.sol\":1248:1271  owner() == _msgSender() */\n      0xffffffffffffffffffffffffffffffffffffffff\n      and\n        /* \"https://github.com/OpenZeppelin/openzeppelin-contracts/blob/master/contracts/access/Ownable.sol\":1248:1255  owner() */\n      tag_53\n        /* \"https://github.com/OpenZeppelin/openzeppelin-contracts/blob/master/contracts/access/Ownable.sol\":1248:1253  owner */\n      tag_29\n        /* \"https://github.com/OpenZeppelin/openzeppelin-contracts/blob/master/contracts/access/Ownable.sol\":1248:1255  owner() */\n      jump\t// in\n    tag_53:\n        /* \"https://github.com/OpenZeppelin/openzeppelin-contracts/blob/master/contracts/access/Ownable.sol\":1248:1271  owner() == _msgSender() */\n      0xffffffffffffffffffffffffffffffffffffffff\n      and\n      eq\n        /* \"https://github.com/OpenZeppelin/openzeppelin-contracts/blob/master/contracts/access/Ownable.sol\":1240:1308  require(owner() == _msgSender(), \"Ownable: caller is not the owner\") */\n      tag_54\n      jumpi\n      mload(0x40)\n      0x08c379a000000000000000000000000000000000000000000000000000000000\n      dup2\n      mstore\n      0x04\n      add\n      tag_55\n      swap1\n      tag_47\n      jump\t// in\n    tag_55:\n      mload(0x40)\n      dup1\n      swap2\n      sub\n      swap1\n      revert\n    tag_54:\n        /* \"LAB 2/Sharedwallet.sol\":657:695  revert(\"can't renounceOwnership here\") */\n      mload(0x40)\n      0x08c379a000000000000000000000000000000000000000000000000000000000\n      dup2\n      mstore\n      0x04\n      add\n      tag_57\n      swap1\n      tag_58\n      jump\t// in\n    tag_57:\n      mload(0x40)\n      dup1\n      swap2\n      sub\n      swap1\n      revert\n        /* \"https://github.com/OpenZeppelin/openzeppelin-contracts/blob/master/contracts/access/Ownable.sol\":1036:1121  function owner() public view virtual returns (address) {... */\n    tag_29:\n        /* \"https://github.com/OpenZeppelin/openzeppelin-contracts/blob/master/contracts/access/Ownable.sol\":1082:1089  address */\n      0x00\n        /* \"https://github.com/OpenZeppelin/openzeppelin-contracts/blob/master/contracts/access/Ownable.sol\":1108:1114  _owner */\n      dup1\n      0x00\n      swap1\n      sload\n      swap1\n      0x0100\n      exp\n      swap1\n      div\n      0xffffffffffffffffffffffffffffffffffffffff\n      and\n        /* \"https://github.com/OpenZeppelin/openzeppelin-contracts/blob/master/contracts/access/Ownable.sol\":1101:1114  return _owner */\n      swap1\n      pop\n        /* \"https://github.com/OpenZeppelin/openzeppelin-contracts/blob/master/contracts/access/Ownable.sol\":1036:1121  function owner() public view virtual returns (address) {... */\n      swap1\n      jump\t// out\n        /* \"LAB 2/Sharedwallet.sol\":249:587  function withdrawMoney(address payable _to, uint _amount) public ownerOrAllowed(_amount) {... */\n    tag_36:\n        /* \"LAB 2/Sharedwallet.sol\":329:336  _amount */\n      dup1\n        /* \"LAB 2/Allowance.sol\":698:707  isOwner() */\n      tag_61\n        /* \"LAB 2/Allowance.sol\":698:705  isOwner */\n      tag_62\n        /* \"LAB 2/Allowance.sol\":698:707  isOwner() */\n      jump\t// in\n    tag_61:\n        /* \"LAB 2/Allowance.sol\":698:743  isOwner() || allowance[msg.sender] >= _amount */\n      dup1\n      tag_63\n      jumpi\n      pop\n        /* \"LAB 2/Allowance.sol\":736:743  _amount */\n      dup1\n        /* \"LAB 2/Allowance.sol\":711:720  allowance */\n      0x01\n        /* \"LAB 2/Allowance.sol\":711:732  allowance[msg.sender] */\n      0x00\n        /* \"LAB 2/Allowance.sol\":721:731  msg.sender */\n      caller\n        /* \"LAB 2/Allowance.sol\":711:732  allowance[msg.sender] */\n      0xffffffffffffffffffffffffffffffffffffffff\n      and\n      0xffffffffffffffffffffffffffffffffffffffff\n      and\n      dup2\n      mstore\n      0x20\n      add\n      swap1\n      dup2\n      mstore\n      0x20\n      add\n      0x00\n      keccak256\n      sload\n        /* \"LAB 2/Allowance.sol\":711:743  allowance[msg.sender] >= _amount */\n      lt\n      iszero\n        /* \"LAB 2/Allowance.sol\":698:743  isOwner() || allowance[msg.sender] >= _amount */\n    tag_63:\n        /* \"LAB 2/Allowance.sol\":690:768  require(isOwner() || allowance[msg.sender] >= _amount, \"You are not allowed!\") */\n      tag_64\n      jumpi\n      mload(0x40)\n      0x08c379a000000000000000000000000000000000000000000000000000000000\n      dup2\n      mstore\n      0x04\n      add\n      tag_65\n      swap1\n      tag_66\n      jump\t// in\n    tag_65:\n      mload(0x40)\n      dup1\n      swap2\n      sub\n      swap1\n      revert\n    tag_64:\n        /* \"LAB 2/Sharedwallet.sol\":367:388  address(this).balance */\n      selfbalance\n        /* \"LAB 2/Sharedwallet.sol\":356:363  _amount */\n      dup3\n        /* \"LAB 2/Sharedwallet.sol\":356:388  _amount <= address(this).balance */\n      gt\n      iszero\n        /* \"LAB 2/Sharedwallet.sol\":348:426  require(_amount <= address(this).balance, \"Contract doesn't own enough money\") */\n      tag_68\n      jumpi\n      mload(0x40)\n      0x08c379a000000000000000000000000000000000000000000000000000000000\n      dup2\n      mstore\n      0x04\n      add\n      tag_69\n      swap1\n      tag_70\n      jump\t// in\n    tag_69:\n      mload(0x40)\n      dup1\n      swap2\n      sub\n      swap1\n      revert\n    tag_68:\n        /* \"LAB 2/Sharedwallet.sol\":440:449  isOwner() */\n      tag_71\n        /* \"LAB 2/Sharedwallet.sol\":440:447  isOwner */\n      tag_62\n        /* \"LAB 2/Sharedwallet.sol\":440:449  isOwner() */\n      jump\t// in\n    tag_71:\n        /* \"LAB 2/Sharedwallet.sol\":436:512  if(!isOwner()) {... */\n      tag_72\n      jumpi\n        /* \"LAB 2/Sharedwallet.sol\":465:501  reduceAllowance(msg.sender, _amount) */\n      tag_73\n        /* \"LAB 2/Sharedwallet.sol\":481:491  msg.sender */\n      caller\n        /* \"LAB 2/Sharedwallet.sol\":493:500  _amount */\n      dup4\n        /* \"LAB 2/Sharedwallet.sol\":465:480  reduceAllowance */\n      tag_74\n        /* \"LAB 2/Sharedwallet.sol\":465:501  reduceAllowance(msg.sender, _amount) */\n      jump\t// in\n    tag_73:\n        /* \"LAB 2/Sharedwallet.sol\":436:512  if(!isOwner()) {... */\n    tag_72:\n        /* \"LAB 2/Sharedwallet.sol\":536:539  _to */\n      dup3\n        /* \"LAB 2/Sharedwallet.sol\":526:549  MoneySent(_to, _amount) */\n      0xffffffffffffffffffffffffffffffffffffffff\n      and\n      0x7f51d406915971d4ac1c91af96be5187ea6ab64753785aad519a533def80a41e\n        /* \"LAB 2/Sharedwallet.sol\":541:548  _amount */\n      dup4\n        /* \"LAB 2/Sharedwallet.sol\":526:549  MoneySent(_to, _amount) */\n      mload(0x40)\n      tag_75\n      swap2\n      swap1\n      tag_12\n      jump\t// in\n    tag_75:\n      mload(0x40)\n      dup1\n      swap2\n      sub\n      swap1\n      log2\n        /* \"LAB 2/Sharedwallet.sol\":559:562  _to */\n      dup3\n        /* \"LAB 2/Sharedwallet.sol\":559:571  _to.transfer */\n      0xffffffffffffffffffffffffffffffffffffffff\n      and\n        /* \"LAB 2/Sharedwallet.sol\":559:580  _to.transfer(_amount) */\n      0x08fc\n        /* \"LAB 2/Sharedwallet.sol\":572:579  _amount */\n      dup4\n        /* \"LAB 2/Sharedwallet.sol\":559:580  _to.transfer(_amount) */\n      swap1\n      dup2\n      iszero\n      mul\n      swap1\n      mload(0x40)\n      0x00\n      mload(0x40)\n      dup1\n      dup4\n      sub\n      dup2\n      dup6\n      dup9\n      dup9\n      call\n      swap4\n      pop\n      pop\n      pop\n      pop\n      iszero\n      dup1\n      iszero\n      tag_77\n      jumpi\n      returndatasize\n      0x00\n      dup1\n      returndatacopy\n      revert(0x00, returndatasize)\n    tag_77:\n      pop\n        /* \"LAB 2/Sharedwallet.sol\":249:587  function withdrawMoney(address payable _to, uint _amount) public ownerOrAllowed(_amount) {... */\n      pop\n      pop\n      pop\n      jump\t// out\n        /* \"https://github.com/OpenZeppelin/openzeppelin-contracts/blob/master/contracts/access/Ownable.sol\":1918:2116  function transferOwnership(address newOwner) public virtual onlyOwner {... */\n    tag_40:\n        /* \"https://github.com/OpenZeppelin/openzeppelin-contracts/blob/master/contracts/access/Ownable.sol\":1259:1271  _msgSender() */\n      tag_79\n        /* \"https://github.com/OpenZeppelin/openzeppelin-contracts/blob/master/contracts/access/Ownable.sol\":1259:1269  _msgSender */\n      tag_43\n        /* \"https://github.com/OpenZeppelin/openzeppelin-contracts/blob/master/contracts/access/Ownable.sol\":1259:1271  _msgSender() */\n      jump\t// in\n    tag_79:\n        /* \"https://github.com/OpenZeppelin/openzeppelin-contracts/blob/master/contracts/access/Ownable.sol\":1248:1271  owner() == _msgSender() */\n      0xffffffffffffffffffffffffffffffffffffffff\n      and\n        /* \"https://github.com/OpenZeppelin/openzeppelin-contracts/blob/master/contracts/access/Ownable.sol\":1248:1255  owner() */\n      tag_80\n        /* \"https://github.com/OpenZeppelin/openzeppelin-contracts/blob/master/contracts/access/Ownable.sol\":1248:1253  owner */\n      tag_29\n        /* \"https://github.com/OpenZeppelin/openzeppelin-contracts/blob/master/contracts/access/Ownable.sol\":1248:1255  owner() */\n      jump\t// in\n    tag_80:\n        /* \"https://github.com/OpenZeppelin/openzeppelin-contracts/blob/master/contracts/access/Ownable.sol\":1248:1271  owner() == _msgSender() */\n      0xffffffffffffffffffffffffffffffffffffffff\n      and\n      eq\n        /* \"https://github.com/OpenZeppelin/openzeppelin-contracts/blob/master/contracts/access/Ownable.sol\":1240:1308  require(owner() == _msgSender(), \"Ownable: caller is not the owner\") */\n      tag_81\n      jumpi\n      mload(0x40)\n      0x08c379a000000000000000000000000000000000000000000000000000000000\n      dup2\n      mstore\n      0x04\n      add\n      tag_82\n      swap1\n      tag_47\n      jump\t// in\n    tag_82:\n      mload(0x40)\n      dup1\n      swap2\n      sub\n      swap1\n      revert\n    tag_81:\n        /* \"https://github.com/OpenZeppelin/openzeppelin-contracts/blob/master/contracts/access/Ownable.sol\":2026:2027  0 */\n      0x00\n        /* \"https://github.com/OpenZeppelin/openzeppelin-contracts/blob/master/contracts/access/Ownable.sol\":2006:2028  newOwner != address(0) */\n      0xffffffffffffffffffffffffffffffffffffffff\n      and\n        /* \"https://github.com/OpenZeppelin/openzeppelin-contracts/blob/master/contracts/access/Ownable.sol\":2006:2014  newOwner */\n      dup2\n        /* \"https://github.com/OpenZeppelin/openzeppelin-contracts/blob/master/contracts/access/Ownable.sol\":2006:2028  newOwner != address(0) */\n      0xffffffffffffffffffffffffffffffffffffffff\n      and\n      sub\n        /* \"https://github.com/OpenZeppelin/openzeppelin-contracts/blob/master/contracts/access/Ownable.sol\":1998:2071  require(newOwner != address(0), \"Ownable: new owner is the zero address\") */\n      tag_84\n      jumpi\n      mload(0x40)\n      0x08c379a000000000000000000000000000000000000000000000000000000000\n      dup2\n      mstore\n      0x04\n      add\n      tag_85\n      swap1\n      tag_86\n      jump\t// in\n    tag_85:\n      mload(0x40)\n      dup1\n      swap2\n      sub\n      swap1\n      revert\n    tag_84:\n        /* \"https://github.com/OpenZeppelin/openzeppelin-contracts/blob/master/contracts/access/Ownable.sol\":2081:2109  _transferOwnership(newOwner) */\n      tag_87\n        /* \"https://github.com/OpenZeppelin/openzeppelin-contracts/blob/master/contracts/access/Ownable.sol\":2100:2108  newOwner */\n      dup2\n        /* \"https://github.com/OpenZeppelin/openzeppelin-contracts/blob/master/contracts/access/Ownable.sol\":2081:2099  _transferOwnership */\n      tag_88\n        /* \"https://github.com/OpenZeppelin/openzeppelin-contracts/blob/master/contracts/access/Ownable.sol\":2081:2109  _transferOwnership(newOwner) */\n      jump\t// in\n    tag_87:\n        /* \"https://github.com/OpenZeppelin/openzeppelin-contracts/blob/master/contracts/access/Ownable.sol\":1918:2116  function transferOwnership(address newOwner) public virtual onlyOwner {... */\n      pop\n      jump\t// out\n        /* \"https://github.com/OpenZeppelin/openzeppelin-contracts/blob/master/contracts/utils/Context.sol\":640:736  function _msgSender() internal view virtual returns (address) {... */\n    tag_43:\n        /* \"https://github.com/OpenZeppelin/openzeppelin-contracts/blob/master/contracts/utils/Context.sol\":693:700  address */\n      0x00\n        /* \"https://github.com/OpenZeppelin/openzeppelin-contracts/blob/master/contracts/utils/Context.sol\":719:729  msg.sender */\n      caller\n        /* \"https://github.com/OpenZeppelin/openzeppelin-contracts/blob/master/contracts/utils/Context.sol\":712:729  return msg.sender */\n      swap1\n      pop\n        /* \"https://github.com/OpenZeppelin/openzeppelin-contracts/blob/master/contracts/utils/Context.sol\":640:736  function _msgSender() internal view virtual returns (address) {... */\n      swap1\n      jump\t// out\n        /* \"LAB 2/Allowance.sol\":356:448  function isOwner() internal view returns(bool) {... */\n    tag_62:\n        /* \"LAB 2/Allowance.sol\":397:401  bool */\n      0x00\n        /* \"LAB 2/Allowance.sol\":431:441  msg.sender */\n      caller\n        /* \"LAB 2/Allowance.sol\":420:441  owner() == msg.sender */\n      0xffffffffffffffffffffffffffffffffffffffff\n      and\n        /* \"LAB 2/Allowance.sol\":420:427  owner() */\n      tag_91\n        /* \"LAB 2/Allowance.sol\":420:425  owner */\n      tag_29\n        /* \"LAB 2/Allowance.sol\":420:427  owner() */\n      jump\t// in\n    tag_91:\n        /* \"LAB 2/Allowance.sol\":420:441  owner() == msg.sender */\n      0xffffffffffffffffffffffffffffffffffffffff\n      and\n      eq\n        /* \"LAB 2/Allowance.sol\":413:441  return owner() == msg.sender */\n      swap1\n      pop\n        /* \"LAB 2/Allowance.sol\":356:448  function isOwner() internal view returns(bool) {... */\n      swap1\n      jump\t// out\n        /* \"LAB 2/Allowance.sol\":791:1013  function reduceAllowance(address _who, uint _amount) internal ownerOrAllowed(_amount) {... */\n    tag_74:\n        /* \"LAB 2/Allowance.sol\":868:875  _amount */\n      dup1\n        /* \"LAB 2/Allowance.sol\":698:707  isOwner() */\n      tag_93\n        /* \"LAB 2/Allowance.sol\":698:705  isOwner */\n      tag_62\n        /* \"LAB 2/Allowance.sol\":698:707  isOwner() */\n      jump\t// in\n    tag_93:\n        /* \"LAB 2/Allowance.sol\":698:743  isOwner() || allowance[msg.sender] >= _amount */\n      dup1\n      tag_94\n      jumpi\n      pop\n        /* \"LAB 2/Allowance.sol\":736:743  _amount */\n      dup1\n        /* \"LAB 2/Allowance.sol\":711:720  allowance */\n      0x01\n        /* \"LAB 2/Allowance.sol\":711:732  allowance[msg.sender] */\n      0x00\n        /* \"LAB 2/Allowance.sol\":721:731  msg.sender */\n      caller\n        /* \"LAB 2/Allowance.sol\":711:732  allowance[msg.sender] */\n      0xffffffffffffffffffffffffffffffffffffffff\n      and\n      0xffffffffffffffffffffffffffffffffffffffff\n      and\n      dup2\n      mstore\n      0x20\n      add\n      swap1\n      dup2\n      mstore\n      0x20\n      add\n      0x00\n      keccak256\n      sload\n        /* \"LAB 2/Allowance.sol\":711:743  allowance[msg.sender] >= _amount */\n      lt\n      iszero\n        /* \"LAB 2/Allowance.sol\":698:743  isOwner() || allowance[msg.sender] >= _amount */\n    tag_94:\n        /* \"LAB 2/Allowance.sol\":690:768  require(isOwner() || allowance[msg.sender] >= _amount, \"You are not allowed!\") */\n      tag_95\n      jumpi\n      mload(0x40)\n      0x08c379a000000000000000000000000000000000000000000000000000000000\n      dup2\n      mstore\n      0x04\n      add\n      tag_96\n      swap1\n      tag_66\n      jump\t// in\n    tag_96:\n      mload(0x40)\n      dup1\n      swap2\n      sub\n      swap1\n      revert\n    tag_95:\n        /* \"LAB 2/Allowance.sol\":915:925  msg.sender */\n      caller\n        /* \"LAB 2/Allowance.sol\":892:970  AllowanceChanged(_who, msg.sender, allowance[_who], allowance[_who] - _amount) */\n      0xffffffffffffffffffffffffffffffffffffffff\n      and\n        /* \"LAB 2/Allowance.sol\":909:913  _who */\n      dup4\n        /* \"LAB 2/Allowance.sol\":892:970  AllowanceChanged(_who, msg.sender, allowance[_who], allowance[_who] - _amount) */\n      0xffffffffffffffffffffffffffffffffffffffff\n      and\n      0x3691d1a86d99355e52b689ca70a7bdf6d80763237a6aa06e5fa43964eac7244b\n        /* \"LAB 2/Allowance.sol\":927:936  allowance */\n      0x01\n        /* \"LAB 2/Allowance.sol\":927:942  allowance[_who] */\n      0x00\n        /* \"LAB 2/Allowance.sol\":937:941  _who */\n      dup8\n        /* \"LAB 2/Allowance.sol\":927:942  allowance[_who] */\n      0xffffffffffffffffffffffffffffffffffffffff\n      and\n      0xffffffffffffffffffffffffffffffffffffffff\n      and\n      dup2\n      mstore\n      0x20\n      add\n      swap1\n      dup2\n      mstore\n      0x20\n      add\n      0x00\n      keccak256\n      sload\n        /* \"LAB 2/Allowance.sol\":962:969  _amount */\n      dup6\n        /* \"LAB 2/Allowance.sol\":944:953  allowance */\n      0x01\n        /* \"LAB 2/Allowance.sol\":944:959  allowance[_who] */\n      0x00\n        /* \"LAB 2/Allowance.sol\":954:958  _who */\n      dup10\n        /* \"LAB 2/Allowance.sol\":944:959  allowance[_who] */\n      0xffffffffffffffffffffffffffffffffffffffff\n      and\n      0xffffffffffffffffffffffffffffffffffffffff\n      and\n      dup2\n      mstore\n      0x20\n      add\n      swap1\n      dup2\n      mstore\n      0x20\n      add\n      0x00\n      keccak256\n      sload\n        /* \"LAB 2/Allowance.sol\":944:969  allowance[_who] - _amount */\n      tag_98\n      swap2\n      swap1\n      tag_99\n      jump\t// in\n    tag_98:\n        /* \"LAB 2/Allowance.sol\":892:970  AllowanceChanged(_who, msg.sender, allowance[_who], allowance[_who] - _amount) */\n      mload(0x40)\n      tag_100\n      swap3\n      swap2\n      swap1\n      tag_50\n      jump\t// in\n    tag_100:\n      mload(0x40)\n      dup1\n      swap2\n      sub\n      swap1\n      log3\n        /* \"LAB 2/Allowance.sol\":999:1006  _amount */\n      dup2\n        /* \"LAB 2/Allowance.sol\":980:989  allowance */\n      0x01\n        /* \"LAB 2/Allowance.sol\":980:995  allowance[_who] */\n      0x00\n        /* \"LAB 2/Allowance.sol\":990:994  _who */\n      dup6\n        /* \"LAB 2/Allowance.sol\":980:995  allowance[_who] */\n      0xffffffffffffffffffffffffffffffffffffffff\n      and\n      0xffffffffffffffffffffffffffffffffffffffff\n      and\n      dup2\n      mstore\n      0x20\n      add\n      swap1\n      dup2\n      mstore\n      0x20\n      add\n      0x00\n      keccak256\n      0x00\n        /* \"LAB 2/Allowance.sol\":980:1006  allowance[_who] -= _amount */\n      dup3\n      dup3\n      sload\n      tag_101\n      swap2\n      swap1\n      tag_99\n      jump\t// in\n    tag_101:\n      swap3\n      pop\n      pop\n      dup2\n      swap1\n      sstore\n      pop\n        /* \"LAB 2/Allowance.sol\":791:1013  function reduceAllowance(address _who, uint _amount) internal ownerOrAllowed(_amount) {... */\n      pop\n      pop\n      pop\n      jump\t// out\n        /* \"https://github.com/OpenZeppelin/openzeppelin-contracts/blob/master/contracts/access/Ownable.sol\":2270:2457  function _transferOwnership(address newOwner) internal virtual {... */\n    tag_88:\n        /* \"https://github.com/OpenZeppelin/openzeppelin-contracts/blob/master/contracts/access/Ownable.sol\":2343:2359  address oldOwner */\n      0x00\n        /* \"https://github.com/OpenZeppelin/openzeppelin-contracts/blob/master/contracts/access/Ownable.sol\":2362:2368  _owner */\n      dup1\n      0x00\n      swap1\n      sload\n      swap1\n      0x0100\n      exp\n      swap1\n      div\n      0xffffffffffffffffffffffffffffffffffffffff\n      and\n        /* \"https://github.com/OpenZeppelin/openzeppelin-contracts/blob/master/contracts/access/Ownable.sol\":2343:2368  address oldOwner = _owner */\n      swap1\n      pop\n        /* \"https://github.com/OpenZeppelin/openzeppelin-contracts/blob/master/contracts/access/Ownable.sol\":2387:2395  newOwner */\n      dup2\n        /* \"https://github.com/OpenZeppelin/openzeppelin-contracts/blob/master/contracts/access/Ownable.sol\":2378:2384  _owner */\n      0x00\n      dup1\n        /* \"https://github.com/OpenZeppelin/openzeppelin-contracts/blob/master/contracts/access/Ownable.sol\":2378:2395  _owner = newOwner */\n      0x0100\n      exp\n      dup2\n      sload\n      dup2\n      0xffffffffffffffffffffffffffffffffffffffff\n      mul\n      not\n      and\n      swap1\n      dup4\n      0xffffffffffffffffffffffffffffffffffffffff\n      and\n      mul\n      or\n      swap1\n      sstore\n      pop\n        /* \"https://github.com/OpenZeppelin/openzeppelin-contracts/blob/master/contracts/access/Ownable.sol\":2441:2449  newOwner */\n      dup2\n        /* \"https://github.com/OpenZeppelin/openzeppelin-contracts/blob/master/contracts/access/Ownable.sol\":2410:2450  OwnershipTransferred(oldOwner, newOwner) */\n      0xffffffffffffffffffffffffffffffffffffffff\n      and\n        /* \"https://github.com/OpenZeppelin/openzeppelin-contracts/blob/master/contracts/access/Ownable.sol\":2431:2439  oldOwner */\n      dup2\n        /* \"https://github.com/OpenZeppelin/openzeppelin-contracts/blob/master/contracts/access/Ownable.sol\":2410:2450  OwnershipTransferred(oldOwner, newOwner) */\n      0xffffffffffffffffffffffffffffffffffffffff\n      and\n      0x8be0079c531659141344cd1fd0a4f28419497f9722a3daafe3b4186f6b6457e0\n      mload(0x40)\n      mload(0x40)\n      dup1\n      swap2\n      sub\n      swap1\n      log3\n        /* \"https://github.com/OpenZeppelin/openzeppelin-contracts/blob/master/contracts/access/Ownable.sol\":2333:2457  {... */\n      pop\n        /* \"https://github.com/OpenZeppelin/openzeppelin-contracts/blob/master/contracts/access/Ownable.sol\":2270:2457  function _transferOwnership(address newOwner) internal virtual {... */\n      pop\n      jump\t// out\n        /* \"#utility.yul\":7:84   */\n    tag_103:\n        /* \"#utility.yul\":44:51   */\n      0x00\n        /* \"#utility.yul\":73:78   */\n      dup2\n        /* \"#utility.yul\":62:78   */\n      swap1\n      pop\n        /* \"#utility.yul\":7:84   */\n      swap2\n      swap1\n      pop\n      jump\t// out\n        /* \"#utility.yul\":90:208   */\n    tag_104:\n        /* \"#utility.yul\":177:201   */\n      tag_133\n        /* \"#utility.yul\":195:200   */\n      dup2\n        /* \"#utility.yul\":177:201   */\n      tag_103\n      jump\t// in\n    tag_133:\n        /* \"#utility.yul\":172:175   */\n      dup3\n        /* \"#utility.yul\":165:202   */\n      mstore\n        /* \"#utility.yul\":90:208   */\n      pop\n      pop\n      jump\t// out\n        /* \"#utility.yul\":214:436   */\n    tag_12:\n        /* \"#utility.yul\":307:311   */\n      0x00\n        /* \"#utility.yul\":345:347   */\n      0x20\n        /* \"#utility.yul\":334:343   */\n      dup3\n        /* \"#utility.yul\":330:348   */\n      add\n        /* \"#utility.yul\":322:348   */\n      swap1\n      pop\n        /* \"#utility.yul\":358:429   */\n      tag_135\n        /* \"#utility.yul\":426:427   */\n      0x00\n        /* \"#utility.yul\":415:424   */\n      dup4\n        /* \"#utility.yul\":411:428   */\n      add\n        /* \"#utility.yul\":402:408   */\n      dup5\n        /* \"#utility.yul\":358:429   */\n      tag_104\n      jump\t// in\n    tag_135:\n        /* \"#utility.yul\":214:436   */\n      swap3\n      swap2\n      pop\n      pop\n      jump\t// out\n        /* \"#utility.yul\":523:640   */\n    tag_106:\n        /* \"#utility.yul\":632:633   */\n      0x00\n        /* \"#utility.yul\":629:630   */\n      dup1\n        /* \"#utility.yul\":622:634   */\n      revert\n        /* \"#utility.yul\":769:895   */\n    tag_108:\n        /* \"#utility.yul\":806:813   */\n      0x00\n        /* \"#utility.yul\":846:888   */\n      0xffffffffffffffffffffffffffffffffffffffff\n        /* \"#utility.yul\":839:844   */\n      dup3\n        /* \"#utility.yul\":835:889   */\n      and\n        /* \"#utility.yul\":824:889   */\n      swap1\n      pop\n        /* \"#utility.yul\":769:895   */\n      swap2\n      swap1\n      pop\n      jump\t// out\n        /* \"#utility.yul\":901:997   */\n    tag_109:\n        /* \"#utility.yul\":938:945   */\n      0x00\n        /* \"#utility.yul\":967:991   */\n      tag_141\n        /* \"#utility.yul\":985:990   */\n      dup3\n        /* \"#utility.yul\":967:991   */\n      tag_108\n      jump\t// in\n    tag_141:\n        /* \"#utility.yul\":956:991   */\n      swap1\n      pop\n        /* \"#utility.yul\":901:997   */\n      swap2\n      swap1\n      pop\n      jump\t// out\n        /* \"#utility.yul\":1003:1125   */\n    tag_110:\n        /* \"#utility.yul\":1076:1100   */\n      tag_143\n        /* \"#utility.yul\":1094:1099   */\n      dup2\n        /* \"#utility.yul\":1076:1100   */\n      tag_109\n      jump\t// in\n    tag_143:\n        /* \"#utility.yul\":1069:1074   */\n      dup2\n        /* \"#utility.yul\":1066:1101   */\n      eq\n        /* \"#utility.yul\":1056:1119   */\n      tag_144\n      jumpi\n        /* \"#utility.yul\":1115:1116   */\n      0x00\n        /* \"#utility.yul\":1112:1113   */\n      dup1\n        /* \"#utility.yul\":1105:1117   */\n      revert\n        /* \"#utility.yul\":1056:1119   */\n    tag_144:\n        /* \"#utility.yul\":1003:1125   */\n      pop\n      jump\t// out\n        /* \"#utility.yul\":1131:1270   */\n    tag_111:\n        /* \"#utility.yul\":1177:1182   */\n      0x00\n        /* \"#utility.yul\":1215:1221   */\n      dup2\n        /* \"#utility.yul\":1202:1222   */\n      calldataload\n        /* \"#utility.yul\":1193:1222   */\n      swap1\n      pop\n        /* \"#utility.yul\":1231:1264   */\n      tag_146\n        /* \"#utility.yul\":1258:1263   */\n      dup2\n        /* \"#utility.yul\":1231:1264   */\n      tag_110\n      jump\t// in\n    tag_146:\n        /* \"#utility.yul\":1131:1270   */\n      swap3\n      swap2\n      pop\n      pop\n      jump\t// out\n        /* \"#utility.yul\":1276:1398   */\n    tag_112:\n        /* \"#utility.yul\":1349:1373   */\n      tag_148\n        /* \"#utility.yul\":1367:1372   */\n      dup2\n        /* \"#utility.yul\":1349:1373   */\n      tag_103\n      jump\t// in\n    tag_148:\n        /* \"#utility.yul\":1342:1347   */\n      dup2\n        /* \"#utility.yul\":1339:1374   */\n      eq\n        /* \"#utility.yul\":1329:1392   */\n      tag_149\n      jumpi\n        /* \"#utility.yul\":1388:1389   */\n      0x00\n        /* \"#utility.yul\":1385:1386   */\n      dup1\n        /* \"#utility.yul\":1378:1390   */\n      revert\n        /* \"#utility.yul\":1329:1392   */\n    tag_149:\n        /* \"#utility.yul\":1276:1398   */\n      pop\n      jump\t// out\n        /* \"#utility.yul\":1404:1543   */\n    tag_113:\n        /* \"#utility.yul\":1450:1455   */\n      0x00\n        /* \"#utility.yul\":1488:1494   */\n      dup2\n        /* \"#utility.yul\":1475:1495   */\n      calldataload\n        /* \"#utility.yul\":1466:1495   */\n      swap1\n      pop\n        /* \"#utility.yul\":1504:1537   */\n      tag_151\n        /* \"#utility.yul\":1531:1536   */\n      dup2\n        /* \"#utility.yul\":1504:1537   */\n      tag_112\n      jump\t// in\n    tag_151:\n        /* \"#utility.yul\":1404:1543   */\n      swap3\n      swap2\n      pop\n      pop\n      jump\t// out\n        /* \"#utility.yul\":1549:2023   */\n    tag_16:\n        /* \"#utility.yul\":1617:1623   */\n      0x00\n        /* \"#utility.yul\":1625:1631   */\n      dup1\n        /* \"#utility.yul\":1674:1676   */\n      0x40\n        /* \"#utility.yul\":1662:1671   */\n      dup4\n        /* \"#utility.yul\":1653:1660   */\n      dup6\n        /* \"#utility.yul\":1649:1672   */\n      sub\n        /* \"#utility.yul\":1645:1677   */\n      slt\n        /* \"#utility.yul\":1642:1761   */\n      iszero\n      tag_153\n      jumpi\n        /* \"#utility.yul\":1680:1759   */\n      tag_154\n      tag_106\n      jump\t// in\n    tag_154:\n        /* \"#utility.yul\":1642:1761   */\n    tag_153:\n        /* \"#utility.yul\":1800:1801   */\n      0x00\n        /* \"#utility.yul\":1825:1878   */\n      tag_155\n        /* \"#utility.yul\":1870:1877   */\n      dup6\n        /* \"#utility.yul\":1861:1867   */\n      dup3\n        /* \"#utility.yul\":1850:1859   */\n      dup7\n        /* \"#utility.yul\":1846:1868   */\n      add\n        /* \"#utility.yul\":1825:1878   */\n      tag_111\n      jump\t// in\n    tag_155:\n        /* \"#utility.yul\":1815:1878   */\n      swap3\n      pop\n        /* \"#utility.yul\":1771:1888   */\n      pop\n        /* \"#utility.yul\":1927:1929   */\n      0x20\n        /* \"#utility.yul\":1953:2006   */\n      tag_156\n        /* \"#utility.yul\":1998:2005   */\n      dup6\n        /* \"#utility.yul\":1989:1995   */\n      dup3\n        /* \"#utility.yul\":1978:1987   */\n      dup7\n        /* \"#utility.yul\":1974:1996   */\n      add\n        /* \"#utility.yul\":1953:2006   */\n      tag_113\n      jump\t// in\n    tag_156:\n        /* \"#utility.yul\":1943:2006   */\n      swap2\n      pop\n        /* \"#utility.yul\":1898:2016   */\n      pop\n        /* \"#utility.yul\":1549:2023   */\n      swap3\n      pop\n      swap3\n      swap1\n      pop\n      jump\t// out\n        /* \"#utility.yul\":2029:2358   */\n    tag_21:\n        /* \"#utility.yul\":2088:2094   */\n      0x00\n        /* \"#utility.yul\":2137:2139   */\n      0x20\n        /* \"#utility.yul\":2125:2134   */\n      dup3\n        /* \"#utility.yul\":2116:2123   */\n      dup5\n        /* \"#utility.yul\":2112:2135   */\n      sub\n        /* \"#utility.yul\":2108:2140   */\n      slt\n        /* \"#utility.yul\":2105:2224   */\n      iszero\n      tag_158\n      jumpi\n        /* \"#utility.yul\":2143:2222   */\n      tag_159\n      tag_106\n      jump\t// in\n    tag_159:\n        /* \"#utility.yul\":2105:2224   */\n    tag_158:\n        /* \"#utility.yul\":2263:2264   */\n      0x00\n        /* \"#utility.yul\":2288:2341   */\n      tag_160\n        /* \"#utility.yul\":2333:2340   */\n      dup5\n        /* \"#utility.yul\":2324:2330   */\n      dup3\n        /* \"#utility.yul\":2313:2322   */\n      dup6\n        /* \"#utility.yul\":2309:2331   */\n      add\n        /* \"#utility.yul\":2288:2341   */\n      tag_111\n      jump\t// in\n    tag_160:\n        /* \"#utility.yul\":2278:2341   */\n      swap2\n      pop\n        /* \"#utility.yul\":2234:2351   */\n      pop\n        /* \"#utility.yul\":2029:2358   */\n      swap3\n      swap2\n      pop\n      pop\n      jump\t// out\n        /* \"#utility.yul\":2364:2482   */\n    tag_114:\n        /* \"#utility.yul\":2451:2475   */\n      tag_162\n        /* \"#utility.yul\":2469:2474   */\n      dup2\n        /* \"#utility.yul\":2451:2475   */\n      tag_109\n      jump\t// in\n    tag_162:\n        /* \"#utility.yul\":2446:2449   */\n      dup3\n        /* \"#utility.yul\":2439:2476   */\n      mstore\n        /* \"#utility.yul\":2364:2482   */\n      pop\n      pop\n      jump\t// out\n        /* \"#utility.yul\":2488:2710   */\n    tag_31:\n        /* \"#utility.yul\":2581:2585   */\n      0x00\n        /* \"#utility.yul\":2619:2621   */\n      0x20\n        /* \"#utility.yul\":2608:2617   */\n      dup3\n        /* \"#utility.yul\":2604:2622   */\n      add\n        /* \"#utility.yul\":2596:2622   */\n      swap1\n      pop\n        /* \"#utility.yul\":2632:2703   */\n      tag_164\n        /* \"#utility.yul\":2700:2701   */\n      0x00\n        /* \"#utility.yul\":2689:2698   */\n      dup4\n        /* \"#utility.yul\":2685:2702   */\n      add\n        /* \"#utility.yul\":2676:2682   */\n      dup5\n        /* \"#utility.yul\":2632:2703   */\n      tag_114\n      jump\t// in\n    tag_164:\n        /* \"#utility.yul\":2488:2710   */\n      swap3\n      swap2\n      pop\n      pop\n      jump\t// out\n        /* \"#utility.yul\":2716:2820   */\n    tag_115:\n        /* \"#utility.yul\":2761:2768   */\n      0x00\n        /* \"#utility.yul\":2790:2814   */\n      tag_166\n        /* \"#utility.yul\":2808:2813   */\n      dup3\n        /* \"#utility.yul\":2790:2814   */\n      tag_108\n      jump\t// in\n    tag_166:\n        /* \"#utility.yul\":2779:2814   */\n      swap1\n      pop\n        /* \"#utility.yul\":2716:2820   */\n      swap2\n      swap1\n      pop\n      jump\t// out\n        /* \"#utility.yul\":2826:2964   */\n    tag_116:\n        /* \"#utility.yul\":2907:2939   */\n      tag_168\n        /* \"#utility.yul\":2933:2938   */\n      dup2\n        /* \"#utility.yul\":2907:2939   */\n      tag_115\n      jump\t// in\n    tag_168:\n        /* \"#utility.yul\":2900:2905   */\n      dup2\n        /* \"#utility.yul\":2897:2940   */\n      eq\n        /* \"#utility.yul\":2887:2958   */\n      tag_169\n      jumpi\n        /* \"#utility.yul\":2954:2955   */\n      0x00\n        /* \"#utility.yul\":2951:2952   */\n      dup1\n        /* \"#utility.yul\":2944:2956   */\n      revert\n        /* \"#utility.yul\":2887:2958   */\n    tag_169:\n        /* \"#utility.yul\":2826:2964   */\n      pop\n      jump\t// out\n        /* \"#utility.yul\":2970:3125   */\n    tag_117:\n        /* \"#utility.yul\":3024:3029   */\n      0x00\n        /* \"#utility.yul\":3062:3068   */\n      dup2\n        /* \"#utility.yul\":3049:3069   */\n      calldataload\n        /* \"#utility.yul\":3040:3069   */\n      swap1\n      pop\n        /* \"#utility.yul\":3078:3119   */\n      tag_171\n        /* \"#utility.yul\":3113:3118   */\n      dup2\n        /* \"#utility.yul\":3078:3119   */\n      tag_116\n      jump\t// in\n    tag_171:\n        /* \"#utility.yul\":2970:3125   */\n      swap3\n      swap2\n      pop\n      pop\n      jump\t// out\n        /* \"#utility.yul\":3131:3621   */\n    tag_35:\n        /* \"#utility.yul\":3207:3213   */\n      0x00\n        /* \"#utility.yul\":3215:3221   */\n      dup1\n        /* \"#utility.yul\":3264:3266   */\n      0x40\n        /* \"#utility.yul\":3252:3261   */\n      dup4\n        /* \"#utility.yul\":3243:3250   */\n      dup6\n        /* \"#utility.yul\":3239:3262   */\n      sub\n        /* \"#utility.yul\":3235:3267   */\n      slt\n        /* \"#utility.yul\":3232:3351   */\n      iszero\n      tag_173\n      jumpi\n        /* \"#utility.yul\":3270:3349   */\n      tag_174\n      tag_106\n      jump\t// in\n    tag_174:\n        /* \"#utility.yul\":3232:3351   */\n    tag_173:\n        /* \"#utility.yul\":3390:3391   */\n      0x00\n        /* \"#utility.yul\":3415:3476   */\n      tag_175\n        /* \"#utility.yul\":3468:3475   */\n      dup6\n        /* \"#utility.yul\":3459:3465   */\n      dup3\n        /* \"#utility.yul\":3448:3457   */\n      dup7\n        /* \"#utility.yul\":3444:3466   */\n      add\n        /* \"#utility.yul\":3415:3476   */\n      tag_117\n      jump\t// in\n    tag_175:\n        /* \"#utility.yul\":3405:3476   */\n      swap3\n      pop\n        /* \"#utility.yul\":3361:3486   */\n      pop\n        /* \"#utility.yul\":3525:3527   */\n      0x20\n        /* \"#utility.yul\":3551:3604   */\n      tag_176\n        /* \"#utility.yul\":3596:3603   */\n      dup6\n        /* \"#utility.yul\":3587:3593   */\n      dup3\n        /* \"#utility.yul\":3576:3585   */\n      dup7\n        /* \"#utility.yul\":3572:3594   */\n      add\n        /* \"#utility.yul\":3551:3604   */\n      tag_113\n      jump\t// in\n    tag_176:\n        /* \"#utility.yul\":3541:3604   */\n      swap2\n      pop\n        /* \"#utility.yul\":3496:3614   */\n      pop\n        /* \"#utility.yul\":3131:3621   */\n      swap3\n      pop\n      swap3\n      swap1\n      pop\n      jump\t// out\n        /* \"#utility.yul\":3627:3796   */\n    tag_118:\n        /* \"#utility.yul\":3711:3722   */\n      0x00\n        /* \"#utility.yul\":3745:3751   */\n      dup3\n        /* \"#utility.yul\":3740:3743   */\n      dup3\n        /* \"#utility.yul\":3733:3752   */\n      mstore\n        /* \"#utility.yul\":3785:3789   */\n      0x20\n        /* \"#utility.yul\":3780:3783   */\n      dup3\n        /* \"#utility.yul\":3776:3790   */\n      add\n        /* \"#utility.yul\":3761:3790   */\n      swap1\n      pop\n        /* \"#utility.yul\":3627:3796   */\n      swap3\n      swap2\n      pop\n      pop\n      jump\t// out\n        /* \"#utility.yul\":3802:3984   */\n    tag_119:\n        /* \"#utility.yul\":3942:3976   */\n      0x4f776e61626c653a2063616c6c6572206973206e6f7420746865206f776e6572\n        /* \"#utility.yul\":3938:3939   */\n      0x00\n        /* \"#utility.yul\":3930:3936   */\n      dup3\n        /* \"#utility.yul\":3926:3940   */\n      add\n        /* \"#utility.yul\":3919:3977   */\n      mstore\n        /* \"#utility.yul\":3802:3984   */\n      pop\n      jump\t// out\n        /* \"#utility.yul\":3990:4356   */\n    tag_120:\n        /* \"#utility.yul\":4132:4135   */\n      0x00\n        /* \"#utility.yul\":4153:4220   */\n      tag_180\n        /* \"#utility.yul\":4217:4219   */\n      0x20\n        /* \"#utility.yul\":4212:4215   */\n      dup4\n        /* \"#utility.yul\":4153:4220   */\n      tag_118\n      jump\t// in\n    tag_180:\n        /* \"#utility.yul\":4146:4220   */\n      swap2\n      pop\n        /* \"#utility.yul\":4229:4322   */\n      tag_181\n        /* \"#utility.yul\":4318:4321   */\n      dup3\n        /* \"#utility.yul\":4229:4322   */\n      tag_119\n      jump\t// in\n    tag_181:\n        /* \"#utility.yul\":4347:4349   */\n      0x20\n        /* \"#utility.yul\":4342:4345   */\n      dup3\n        /* \"#utility.yul\":4338:4350   */\n      add\n        /* \"#utility.yul\":4331:4350   */\n      swap1\n      pop\n        /* \"#utility.yul\":3990:4356   */\n      swap2\n      swap1\n      pop\n      jump\t// out\n        /* \"#utility.yul\":4362:4781   */\n    tag_47:\n        /* \"#utility.yul\":4528:4532   */\n      0x00\n        /* \"#utility.yul\":4566:4568   */\n      0x20\n        /* \"#utility.yul\":4555:4564   */\n      dup3\n        /* \"#utility.yul\":4551:4569   */\n      add\n        /* \"#utility.yul\":4543:4569   */\n      swap1\n      pop\n        /* \"#utility.yul\":4615:4624   */\n      dup2\n        /* \"#utility.yul\":4609:4613   */\n      dup2\n        /* \"#utility.yul\":4605:4625   */\n      sub\n        /* \"#utility.yul\":4601:4602   */\n      0x00\n        /* \"#utility.yul\":4590:4599   */\n      dup4\n        /* \"#utility.yul\":4586:4603   */\n      add\n        /* \"#utility.yul\":4579:4626   */\n      mstore\n        /* \"#utility.yul\":4643:4774   */\n      tag_183\n        /* \"#utility.yul\":4769:4773   */\n      dup2\n        /* \"#utility.yul\":4643:4774   */\n      tag_120\n      jump\t// in\n    tag_183:\n        /* \"#utility.yul\":4635:4774   */\n      swap1\n      pop\n        /* \"#utility.yul\":4362:4781   */\n      swap2\n      swap1\n      pop\n      jump\t// out\n        /* \"#utility.yul\":4787:5119   */\n    tag_50:\n        /* \"#utility.yul\":4908:4912   */\n      0x00\n        /* \"#utility.yul\":4946:4948   */\n      0x40\n        /* \"#utility.yul\":4935:4944   */\n      dup3\n        /* \"#utility.yul\":4931:4949   */\n      add\n        /* \"#utility.yul\":4923:4949   */\n      swap1\n      pop\n        /* \"#utility.yul\":4959:5030   */\n      tag_185\n        /* \"#utility.yul\":5027:5028   */\n      0x00\n        /* \"#utility.yul\":5016:5025   */\n      dup4\n        /* \"#utility.yul\":5012:5029   */\n      add\n        /* \"#utility.yul\":5003:5009   */\n      dup6\n        /* \"#utility.yul\":4959:5030   */\n      tag_104\n      jump\t// in\n    tag_185:\n        /* \"#utility.yul\":5040:5112   */\n      tag_186\n        /* \"#utility.yul\":5108:5110   */\n      0x20\n        /* \"#utility.yul\":5097:5106   */\n      dup4\n        /* \"#utility.yul\":5093:5111   */\n      add\n        /* \"#utility.yul\":5084:5090   */\n      dup5\n        /* \"#utility.yul\":5040:5112   */\n      tag_104\n      jump\t// in\n    tag_186:\n        /* \"#utility.yul\":4787:5119   */\n      swap4\n      swap3\n      pop\n      pop\n      pop\n      jump\t// out\n        /* \"#utility.yul\":5125:5303   */\n    tag_121:\n        /* \"#utility.yul\":5265:5295   */\n      0x63616e27742072656e6f756e63654f776e657273686970206865726500000000\n        /* \"#utility.yul\":5261:5262   */\n      0x00\n        /* \"#utility.yul\":5253:5259   */\n      dup3\n        /* \"#utility.yul\":5249:5263   */\n      add\n        /* \"#utility.yul\":5242:5296   */\n      mstore\n        /* \"#utility.yul\":5125:5303   */\n      pop\n      jump\t// out\n        /* \"#utility.yul\":5309:5675   */\n    tag_122:\n        /* \"#utility.yul\":5451:5454   */\n      0x00\n        /* \"#utility.yul\":5472:5539   */\n      tag_189\n        /* \"#utility.yul\":5536:5538   */\n      0x1c\n        /* \"#utility.yul\":5531:5534   */\n      dup4\n        /* \"#utility.yul\":5472:5539   */\n      tag_118\n      jump\t// in\n    tag_189:\n        /* \"#utility.yul\":5465:5539   */\n      swap2\n      pop\n        /* \"#utility.yul\":5548:5641   */\n      tag_190\n        /* \"#utility.yul\":5637:5640   */\n      dup3\n        /* \"#utility.yul\":5548:5641   */\n      tag_121\n      jump\t// in\n    tag_190:\n        /* \"#utility.yul\":5666:5668   */\n      0x20\n        /* \"#utility.yul\":5661:5664   */\n      dup3\n        /* \"#utility.yul\":5657:5669   */\n      add\n        /* \"#utility.yul\":5650:5669   */\n      swap1\n      pop\n        /* \"#utility.yul\":5309:5675   */\n      swap2\n      swap1\n      pop\n      jump\t// out\n        /* \"#utility.yul\":5681:6100   */\n    tag_58:\n        /* \"#utility.yul\":5847:5851   */\n      0x00\n        /* \"#utility.yul\":5885:5887   */\n      0x20\n        /* \"#utility.yul\":5874:5883   */\n      dup3\n        /* \"#utility.yul\":5870:5888   */\n      add\n        /* \"#utility.yul\":5862:5888   */\n      swap1\n      pop\n        /* \"#utility.yul\":5934:5943   */\n      dup2\n        /* \"#utility.yul\":5928:5932   */\n      dup2\n        /* \"#utility.yul\":5924:5944   */\n      sub\n        /* \"#utility.yul\":5920:5921   */\n      0x00\n        /* \"#utility.yul\":5909:5918   */\n      dup4\n        /* \"#utility.yul\":5905:5922   */\n      add\n        /* \"#utility.yul\":5898:5945   */\n      mstore\n        /* \"#utility.yul\":5962:6093   */\n      tag_192\n        /* \"#utility.yul\":6088:6092   */\n      dup2\n        /* \"#utility.yul\":5962:6093   */\n      tag_122\n      jump\t// in\n    tag_192:\n        /* \"#utility.yul\":5954:6093   */\n      swap1\n      pop\n        /* \"#utility.yul\":5681:6100   */\n      swap2\n      swap1\n      pop\n      jump\t// out\n        /* \"#utility.yul\":6106:6276   */\n    tag_123:\n        /* \"#utility.yul\":6246:6268   */\n      0x596f7520617265206e6f7420616c6c6f77656421000000000000000000000000\n        /* \"#utility.yul\":6242:6243   */\n      0x00\n        /* \"#utility.yul\":6234:6240   */\n      dup3\n        /* \"#utility.yul\":6230:6244   */\n      add\n        /* \"#utility.yul\":6223:6269   */\n      mstore\n        /* \"#utility.yul\":6106:6276   */\n      pop\n      jump\t// out\n        /* \"#utility.yul\":6282:6648   */\n    tag_124:\n        /* \"#utility.yul\":6424:6427   */\n      0x00\n        /* \"#utility.yul\":6445:6512   */\n      tag_195\n        /* \"#utility.yul\":6509:6511   */\n      0x14\n        /* \"#utility.yul\":6504:6507   */\n      dup4\n        /* \"#utility.yul\":6445:6512   */\n      tag_118\n      jump\t// in\n    tag_195:\n        /* \"#utility.yul\":6438:6512   */\n      swap2\n      pop\n        /* \"#utility.yul\":6521:6614   */\n      tag_196\n        /* \"#utility.yul\":6610:6613   */\n      dup3\n        /* \"#utility.yul\":6521:6614   */\n      tag_123\n      jump\t// in\n    tag_196:\n        /* \"#utility.yul\":6639:6641   */\n      0x20\n        /* \"#utility.yul\":6634:6637   */\n      dup3\n        /* \"#utility.yul\":6630:6642   */\n      add\n        /* \"#utility.yul\":6623:6642   */\n      swap1\n      pop\n        /* \"#utility.yul\":6282:6648   */\n      swap2\n      swap1\n      pop\n      jump\t// out\n        /* \"#utility.yul\":6654:7073   */\n    tag_66:\n        /* \"#utility.yul\":6820:6824   */\n      0x00\n        /* \"#utility.yul\":6858:6860   */\n      0x20\n        /* \"#utility.yul\":6847:6856   */\n      dup3\n        /* \"#utility.yul\":6843:6861   */\n      add\n        /* \"#utility.yul\":6835:6861   */\n      swap1\n      pop\n        /* \"#utility.yul\":6907:6916   */\n      dup2\n        /* \"#utility.yul\":6901:6905   */\n      dup2\n        /* \"#utility.yul\":6897:6917   */\n      sub\n        /* \"#utility.yul\":6893:6894   */\n      0x00\n        /* \"#utility.yul\":6882:6891   */\n      dup4\n        /* \"#utility.yul\":6878:6895   */\n      add\n        /* \"#utility.yul\":6871:6918   */\n      mstore\n        /* \"#utility.yul\":6935:7066   */\n      tag_198\n        /* \"#utility.yul\":7061:7065   */\n      dup2\n        /* \"#utility.yul\":6935:7066   */\n      tag_124\n      jump\t// in\n    tag_198:\n        /* \"#utility.yul\":6927:7066   */\n      swap1\n      pop\n        /* \"#utility.yul\":6654:7073   */\n      swap2\n      swap1\n      pop\n      jump\t// out\n        /* \"#utility.yul\":7079:7299   */\n    tag_125:\n        /* \"#utility.yul\":7219:7253   */\n      0x436f6e747261637420646f65736e2774206f776e20656e6f756768206d6f6e65\n        /* \"#utility.yul\":7215:7216   */\n      0x00\n        /* \"#utility.yul\":7207:7213   */\n      dup3\n        /* \"#utility.yul\":7203:7217   */\n      add\n        /* \"#utility.yul\":7196:7254   */\n      mstore\n        /* \"#utility.yul\":7288:7291   */\n      0x7900000000000000000000000000000000000000000000000000000000000000\n        /* \"#utility.yul\":7283:7285   */\n      0x20\n        /* \"#utility.yul\":7275:7281   */\n      dup3\n        /* \"#utility.yul\":7271:7286   */\n      add\n        /* \"#utility.yul\":7264:7292   */\n      mstore\n        /* \"#utility.yul\":7079:7299   */\n      pop\n      jump\t// out\n        /* \"#utility.yul\":7305:7671   */\n    tag_126:\n        /* \"#utility.yul\":7447:7450   */\n      0x00\n        /* \"#utility.yul\":7468:7535   */\n      tag_201\n        /* \"#utility.yul\":7532:7534   */\n      0x21\n        /* \"#utility.yul\":7527:7530   */\n      dup4\n        /* \"#utility.yul\":7468:7535   */\n      tag_118\n      jump\t// in\n    tag_201:\n        /* \"#utility.yul\":7461:7535   */\n      swap2\n      pop\n        /* \"#utility.yul\":7544:7637   */\n      tag_202\n        /* \"#utility.yul\":7633:7636   */\n      dup3\n        /* \"#utility.yul\":7544:7637   */\n      tag_125\n      jump\t// in\n    tag_202:\n        /* \"#utility.yul\":7662:7664   */\n      0x40\n        /* \"#utility.yul\":7657:7660   */\n      dup3\n        /* \"#utility.yul\":7653:7665   */\n      add\n        /* \"#utility.yul\":7646:7665   */\n      swap1\n      pop\n        /* \"#utility.yul\":7305:7671   */\n      swap2\n      swap1\n      pop\n      jump\t// out\n        /* \"#utility.yul\":7677:8096   */\n    tag_70:\n        /* \"#utility.yul\":7843:7847   */\n      0x00\n        /* \"#utility.yul\":7881:7883   */\n      0x20\n        /* \"#utility.yul\":7870:7879   */\n      dup3\n        /* \"#utility.yul\":7866:7884   */\n      add\n        /* \"#utility.yul\":7858:7884   */\n      swap1\n      pop\n        /* \"#utility.yul\":7930:7939   */\n      dup2\n        /* \"#utility.yul\":7924:7928   */\n      dup2\n        /* \"#utility.yul\":7920:7940   */\n      sub\n        /* \"#utility.yul\":7916:7917   */\n      0x00\n        /* \"#utility.yul\":7905:7914   */\n      dup4\n        /* \"#utility.yul\":7901:7918   */\n      add\n        /* \"#utility.yul\":7894:7941   */\n      mstore\n        /* \"#utility.yul\":7958:8089   */\n      tag_204\n        /* \"#utility.yul\":8084:8088   */\n      dup2\n        /* \"#utility.yul\":7958:8089   */\n      tag_126\n      jump\t// in\n    tag_204:\n        /* \"#utility.yul\":7950:8089   */\n      swap1\n      pop\n        /* \"#utility.yul\":7677:8096   */\n      swap2\n      swap1\n      pop\n      jump\t// out\n        /* \"#utility.yul\":8102:8327   */\n    tag_127:\n        /* \"#utility.yul\":8242:8276   */\n      0x4f776e61626c653a206e6577206f776e657220697320746865207a65726f2061\n        /* \"#utility.yul\":8238:8239   */\n      0x00\n        /* \"#utility.yul\":8230:8236   */\n      dup3\n        /* \"#utility.yul\":8226:8240   */\n      add\n        /* \"#utility.yul\":8219:8277   */\n      mstore\n        /* \"#utility.yul\":8311:8319   */\n      0x6464726573730000000000000000000000000000000000000000000000000000\n        /* \"#utility.yul\":8306:8308   */\n      0x20\n        /* \"#utility.yul\":8298:8304   */\n      dup3\n        /* \"#utility.yul\":8294:8309   */\n      add\n        /* \"#utility.yul\":8287:8320   */\n      mstore\n        /* \"#utility.yul\":8102:8327   */\n      pop\n      jump\t// out\n        /* \"#utility.yul\":8333:8699   */\n    tag_128:\n        /* \"#utility.yul\":8475:8478   */\n      0x00\n        /* \"#utility.yul\":8496:8563   */\n      tag_207\n        /* \"#utility.yul\":8560:8562   */\n      0x26\n        /* \"#utility.yul\":8555:8558   */\n      dup4\n        /* \"#utility.yul\":8496:8563   */\n      tag_118\n      jump\t// in\n    tag_207:\n        /* \"#utility.yul\":8489:8563   */\n      swap2\n      pop\n        /* \"#utility.yul\":8572:8665   */\n      tag_208\n        /* \"#utility.yul\":8661:8664   */\n      dup3\n        /* \"#utility.yul\":8572:8665   */\n      tag_127\n      jump\t// in\n    tag_208:\n        /* \"#utility.yul\":8690:8692   */\n      0x40\n        /* \"#utility.yul\":8685:8688   */\n      dup3\n        /* \"#utility.yul\":8681:8693   */\n      add\n        /* \"#utility.yul\":8674:8693   */\n      swap1\n      pop\n        /* \"#utility.yul\":8333:8699   */\n      swap2\n      swap1\n      pop\n      jump\t// out\n        /* \"#utility.yul\":8705:9124   */\n    tag_86:\n        /* \"#utility.yul\":8871:8875   */\n      0x00\n        /* \"#utility.yul\":8909:8911   */\n      0x20\n        /* \"#utility.yul\":8898:8907   */\n      dup3\n        /* \"#utility.yul\":8894:8912   */\n      add\n        /* \"#utility.yul\":8886:8912   */\n      swap1\n      pop\n        /* \"#utility.yul\":8958:8967   */\n      dup2\n        /* \"#utility.yul\":8952:8956   */\n      dup2\n        /* \"#utility.yul\":8948:8968   */\n      sub\n        /* \"#utility.yul\":8944:8945   */\n      0x00\n        /* \"#utility.yul\":8933:8942   */\n      dup4\n        /* \"#utility.yul\":8929:8946   */\n      add\n        /* \"#utility.yul\":8922:8969   */\n      mstore\n        /* \"#utility.yul\":8986:9117   */\n      tag_210\n        /* \"#utility.yul\":9112:9116   */\n      dup2\n        /* \"#utility.yul\":8986:9117   */\n      tag_128\n      jump\t// in\n    tag_210:\n        /* \"#utility.yul\":8978:9117   */\n      swap1\n      pop\n        /* \"#utility.yul\":8705:9124   */\n      swap2\n      swap1\n      pop\n      jump\t// out\n        /* \"#utility.yul\":9130:9310   */\n    tag_129:\n        /* \"#utility.yul\":9178:9255   */\n      0x4e487b7100000000000000000000000000000000000000000000000000000000\n        /* \"#utility.yul\":9175:9176   */\n      0x00\n        /* \"#utility.yul\":9168:9256   */\n      mstore\n        /* \"#utility.yul\":9275:9279   */\n      0x11\n        /* \"#utility.yul\":9272:9273   */\n      0x04\n        /* \"#utility.yul\":9265:9280   */\n      mstore\n        /* \"#utility.yul\":9299:9303   */\n      0x24\n        /* \"#utility.yul\":9296:9297   */\n      0x00\n        /* \"#utility.yul\":9289:9304   */\n      revert\n        /* \"#utility.yul\":9316:9507   */\n    tag_99:\n        /* \"#utility.yul\":9356:9360   */\n      0x00\n        /* \"#utility.yul\":9376:9396   */\n      tag_213\n        /* \"#utility.yul\":9394:9395   */\n      dup3\n        /* \"#utility.yul\":9376:9396   */\n      tag_103\n      jump\t// in\n    tag_213:\n        /* \"#utility.yul\":9371:9396   */\n      swap2\n      pop\n        /* \"#utility.yul\":9410:9430   */\n      tag_214\n        /* \"#utility.yul\":9428:9429   */\n      dup4\n        /* \"#utility.yul\":9410:9430   */\n      tag_103\n      jump\t// in\n    tag_214:\n        /* \"#utility.yul\":9405:9430   */\n      swap3\n      pop\n        /* \"#utility.yul\":9449:9450   */\n      dup3\n        /* \"#utility.yul\":9446:9447   */\n      dup3\n        /* \"#utility.yul\":9443:9451   */\n      lt\n        /* \"#utility.yul\":9440:9474   */\n      iszero\n      tag_215\n      jumpi\n        /* \"#utility.yul\":9454:9472   */\n      tag_216\n      tag_129\n      jump\t// in\n    tag_216:\n        /* \"#utility.yul\":9440:9474   */\n    tag_215:\n        /* \"#utility.yul\":9499:9500   */\n      dup3\n        /* \"#utility.yul\":9496:9497   */\n      dup3\n        /* \"#utility.yul\":9492:9501   */\n      sub\n        /* \"#utility.yul\":9484:9501   */\n      swap1\n      pop\n        /* \"#utility.yul\":9316:9507   */\n      swap3\n      swap2\n      pop\n      pop\n      jump\t// out\n\n    auxdata: 0xa2646970667358221220286674312b94de34c98e9a3302771aab4d764d6acb62a6820f48659a5d45191a64736f6c634300080d0033\n}\n",
				"bytecode": {
					"linkReferences": {},
					"object": "608060405234801561001057600080fd5b5061002d61002261003260201b60201c565b61003a60201b60201c565b6100fe565b600033905090565b60008060009054906101000a900473ffffffffffffffffffffffffffffffffffffffff169050816000806101000a81548173ffffffffffffffffffffffffffffffffffffffff021916908373ffffffffffffffffffffffffffffffffffffffff1602179055508173ffffffffffffffffffffffffffffffffffffffff168173ffffffffffffffffffffffffffffffffffffffff167f8be0079c531659141344cd1fd0a4f28419497f9722a3daafe3b4186f6b6457e060405160405180910390a35050565b610e858061010d6000396000f3fe6080604052600436106100595760003560e01c8063310ec4a7146100b35780633e5beab9146100dc578063715018a6146101195780638da5cb5b14610130578063f274c8971461015b578063f2fde38b14610184576100ae565b366100ae573373ffffffffffffffffffffffffffffffffffffffff167f27b15ed4cf832749ed39f33a64e4707ed60a761485e41ffec7343ecaddc0c02a346040516100a4919061098b565b60405180910390a2005b600080fd5b3480156100bf57600080fd5b506100da60048036038101906100d59190610a35565b6101ad565b005b3480156100e857600080fd5b5061010360048036038101906100fe9190610a75565b610317565b604051610110919061098b565b60405180910390f35b34801561012557600080fd5b5061012e61032f565b005b34801561013c57600080fd5b506101456103e6565b6040516101529190610ab1565b60405180910390f35b34801561016757600080fd5b50610182600480360381019061017d9190610b0a565b61040f565b005b34801561019057600080fd5b506101ab60048036038101906101a69190610a75565b610595565b005b6101b561068c565b73ffffffffffffffffffffffffffffffffffffffff166101d36103e6565b73ffffffffffffffffffffffffffffffffffffffff1614610229576040517f08c379a000000000000000000000000000000000000000000000000000000000815260040161022090610ba7565b60405180910390fd5b3373ffffffffffffffffffffffffffffffffffffffff168273ffffffffffffffffffffffffffffffffffffffff167f3691d1a86d99355e52b689ca70a7bdf6d80763237a6aa06e5fa43964eac7244b600160008673ffffffffffffffffffffffffffffffffffffffff1673ffffffffffffffffffffffffffffffffffffffff16815260200190815260200160002054846040516102c7929190610bc7565b60405180910390a380600160008473ffffffffffffffffffffffffffffffffffffffff1673ffffffffffffffffffffffffffffffffffffffff168152602001908152602001600020819055505050565b60016020528060005260406000206000915090505481565b61033761068c565b73ffffffffffffffffffffffffffffffffffffffff166103556103e6565b73ffffffffffffffffffffffffffffffffffffffff16146103ab576040517f08c379a00000000000000000000000000000000000000000000000000000000081526004016103a290610ba7565b60405180910390fd5b6040517f08c379a00000000000000000000000000000000000000000000000000000000081526004016103dd90610c3c565b60405180910390fd5b60008060009054906101000a900473ffffffffffffffffffffffffffffffffffffffff16905090565b80610418610694565b80610462575080600160003373ffffffffffffffffffffffffffffffffffffffff1673ffffffffffffffffffffffffffffffffffffffff1681526020019081526020016000205410155b6104a1576040517f08c379a000000000000000000000000000000000000000000000000000000000815260040161049890610ca8565b60405180910390fd5b478211156104e4576040517f08c379a00000000000000000000000000000000000000000000000000000000081526004016104db90610d3a565b60405180910390fd5b6104ec610694565b6104fb576104fa33836106d1565b5b8273ffffffffffffffffffffffffffffffffffffffff167f7f51d406915971d4ac1c91af96be5187ea6ab64753785aad519a533def80a41e83604051610541919061098b565b60405180910390a28273ffffffffffffffffffffffffffffffffffffffff166108fc839081150290604051600060405180830381858888f1935050505015801561058f573d6000803e3d6000fd5b50505050565b61059d61068c565b73ffffffffffffffffffffffffffffffffffffffff166105bb6103e6565b73ffffffffffffffffffffffffffffffffffffffff1614610611576040517f08c379a000000000000000000000000000000000000000000000000000000000815260040161060890610ba7565b60405180910390fd5b600073ffffffffffffffffffffffffffffffffffffffff168173ffffffffffffffffffffffffffffffffffffffff1603610680576040517f08c379a000000000000000000000000000000000000000000000000000000000815260040161067790610dcc565b60405180910390fd5b610689816108ae565b50565b600033905090565b60003373ffffffffffffffffffffffffffffffffffffffff166106b56103e6565b73ffffffffffffffffffffffffffffffffffffffff1614905090565b806106da610694565b80610724575080600160003373ffffffffffffffffffffffffffffffffffffffff1673ffffffffffffffffffffffffffffffffffffffff1681526020019081526020016000205410155b610763576040517f08c379a000000000000000000000000000000000000000000000000000000000815260040161075a90610ca8565b60405180910390fd5b3373ffffffffffffffffffffffffffffffffffffffff168373ffffffffffffffffffffffffffffffffffffffff167f3691d1a86d99355e52b689ca70a7bdf6d80763237a6aa06e5fa43964eac7244b600160008773ffffffffffffffffffffffffffffffffffffffff1673ffffffffffffffffffffffffffffffffffffffff1681526020019081526020016000205485600160008973ffffffffffffffffffffffffffffffffffffffff1673ffffffffffffffffffffffffffffffffffffffff1681526020019081526020016000205461083d9190610e1b565b60405161084b929190610bc7565b60405180910390a381600160008573ffffffffffffffffffffffffffffffffffffffff1673ffffffffffffffffffffffffffffffffffffffff16815260200190815260200160002060008282546108a29190610e1b565b92505081905550505050565b60008060009054906101000a900473ffffffffffffffffffffffffffffffffffffffff169050816000806101000a81548173ffffffffffffffffffffffffffffffffffffffff021916908373ffffffffffffffffffffffffffffffffffffffff1602179055508173ffffffffffffffffffffffffffffffffffffffff168173ffffffffffffffffffffffffffffffffffffffff167f8be0079c531659141344cd1fd0a4f28419497f9722a3daafe3b4186f6b6457e060405160405180910390a35050565b6000819050919050565b61098581610972565b82525050565b60006020820190506109a0600083018461097c565b92915050565b600080fd5b600073ffffffffffffffffffffffffffffffffffffffff82169050919050565b60006109d6826109ab565b9050919050565b6109e6816109cb565b81146109f157600080fd5b50565b600081359050610a03816109dd565b92915050565b610a1281610972565b8114610a1d57600080fd5b50565b600081359050610a2f81610a09565b92915050565b60008060408385031215610a4c57610a4b6109a6565b5b6000610a5a858286016109f4565b9250506020610a6b85828601610a20565b9150509250929050565b600060208284031215610a8b57610a8a6109a6565b5b6000610a99848285016109f4565b91505092915050565b610aab816109cb565b82525050565b6000602082019050610ac66000830184610aa2565b92915050565b6000610ad7826109ab565b9050919050565b610ae781610acc565b8114610af257600080fd5b50565b600081359050610b0481610ade565b92915050565b60008060408385031215610b2157610b206109a6565b5b6000610b2f85828601610af5565b9250506020610b4085828601610a20565b9150509250929050565b600082825260208201905092915050565b7f4f776e61626c653a2063616c6c6572206973206e6f7420746865206f776e6572600082015250565b6000610b91602083610b4a565b9150610b9c82610b5b565b602082019050919050565b60006020820190508181036000830152610bc081610b84565b9050919050565b6000604082019050610bdc600083018561097c565b610be9602083018461097c565b9392505050565b7f63616e27742072656e6f756e63654f776e657273686970206865726500000000600082015250565b6000610c26601c83610b4a565b9150610c3182610bf0565b602082019050919050565b60006020820190508181036000830152610c5581610c19565b9050919050565b7f596f7520617265206e6f7420616c6c6f77656421000000000000000000000000600082015250565b6000610c92601483610b4a565b9150610c9d82610c5c565b602082019050919050565b60006020820190508181036000830152610cc181610c85565b9050919050565b7f436f6e747261637420646f65736e2774206f776e20656e6f756768206d6f6e6560008201527f7900000000000000000000000000000000000000000000000000000000000000602082015250565b6000610d24602183610b4a565b9150610d2f82610cc8565b604082019050919050565b60006020820190508181036000830152610d5381610d17565b9050919050565b7f4f776e61626c653a206e6577206f776e657220697320746865207a65726f206160008201527f6464726573730000000000000000000000000000000000000000000000000000602082015250565b6000610db6602683610b4a565b9150610dc182610d5a565b604082019050919050565b60006020820190508181036000830152610de581610da9565b9050919050565b7f4e487b7100000000000000000000000000000000000000000000000000000000600052601160045260246000fd5b6000610e2682610972565b9150610e3183610972565b925082821015610e4457610e43610dec565b5b82820390509291505056fea2646970667358221220286674312b94de34c98e9a3302771aab4d764d6acb62a6820f48659a5d45191a64736f6c634300080d0033",
					"opcodes": "PUSH1 0x80 PUSH1 0x40 MSTORE CALLVALUE DUP1 ISZERO PUSH2 0x10 JUMPI PUSH1 0x0 DUP1 REVERT JUMPDEST POP PUSH2 0x2D PUSH2 0x22 PUSH2 0x32 PUSH1 0x20 SHL PUSH1 0x20 SHR JUMP JUMPDEST PUSH2 0x3A PUSH1 0x20 SHL PUSH1 0x20 SHR JUMP JUMPDEST PUSH2 0xFE JUMP JUMPDEST PUSH1 0x0 CALLER SWAP1 POP SWAP1 JUMP JUMPDEST PUSH1 0x0 DUP1 PUSH1 0x0 SWAP1 SLOAD SWAP1 PUSH2 0x100 EXP SWAP1 DIV PUSH20 0xFFFFFFFFFFFFFFFFFFFFFFFFFFFFFFFFFFFFFFFF AND SWAP1 POP DUP2 PUSH1 0x0 DUP1 PUSH2 0x100 EXP DUP2 SLOAD DUP2 PUSH20 0xFFFFFFFFFFFFFFFFFFFFFFFFFFFFFFFFFFFFFFFF MUL NOT AND SWAP1 DUP4 PUSH20 0xFFFFFFFFFFFFFFFFFFFFFFFFFFFFFFFFFFFFFFFF AND MUL OR SWAP1 SSTORE POP DUP2 PUSH20 0xFFFFFFFFFFFFFFFFFFFFFFFFFFFFFFFFFFFFFFFF AND DUP2 PUSH20 0xFFFFFFFFFFFFFFFFFFFFFFFFFFFFFFFFFFFFFFFF AND PUSH32 0x8BE0079C531659141344CD1FD0A4F28419497F9722A3DAAFE3B4186F6B6457E0 PUSH1 0x40 MLOAD PUSH1 0x40 MLOAD DUP1 SWAP2 SUB SWAP1 LOG3 POP POP JUMP JUMPDEST PUSH2 0xE85 DUP1 PUSH2 0x10D PUSH1 0x0 CODECOPY PUSH1 0x0 RETURN INVALID PUSH1 0x80 PUSH1 0x40 MSTORE PUSH1 0x4 CALLDATASIZE LT PUSH2 0x59 JUMPI PUSH1 0x0 CALLDATALOAD PUSH1 0xE0 SHR DUP1 PUSH4 0x310EC4A7 EQ PUSH2 0xB3 JUMPI DUP1 PUSH4 0x3E5BEAB9 EQ PUSH2 0xDC JUMPI DUP1 PUSH4 0x715018A6 EQ PUSH2 0x119 JUMPI DUP1 PUSH4 0x8DA5CB5B EQ PUSH2 0x130 JUMPI DUP1 PUSH4 0xF274C897 EQ PUSH2 0x15B JUMPI DUP1 PUSH4 0xF2FDE38B EQ PUSH2 0x184 JUMPI PUSH2 0xAE JUMP JUMPDEST CALLDATASIZE PUSH2 0xAE JUMPI CALLER PUSH20 0xFFFFFFFFFFFFFFFFFFFFFFFFFFFFFFFFFFFFFFFF AND PUSH32 0x27B15ED4CF832749ED39F33A64E4707ED60A761485E41FFEC7343ECADDC0C02A CALLVALUE PUSH1 0x40 MLOAD PUSH2 0xA4 SWAP2 SWAP1 PUSH2 0x98B JUMP JUMPDEST PUSH1 0x40 MLOAD DUP1 SWAP2 SUB SWAP1 LOG2 STOP JUMPDEST PUSH1 0x0 DUP1 REVERT JUMPDEST CALLVALUE DUP1 ISZERO PUSH2 0xBF JUMPI PUSH1 0x0 DUP1 REVERT JUMPDEST POP PUSH2 0xDA PUSH1 0x4 DUP1 CALLDATASIZE SUB DUP2 ADD SWAP1 PUSH2 0xD5 SWAP2 SWAP1 PUSH2 0xA35 JUMP JUMPDEST PUSH2 0x1AD JUMP JUMPDEST STOP JUMPDEST CALLVALUE DUP1 ISZERO PUSH2 0xE8 JUMPI PUSH1 0x0 DUP1 REVERT JUMPDEST POP PUSH2 0x103 PUSH1 0x4 DUP1 CALLDATASIZE SUB DUP2 ADD SWAP1 PUSH2 0xFE SWAP2 SWAP1 PUSH2 0xA75 JUMP JUMPDEST PUSH2 0x317 JUMP JUMPDEST PUSH1 0x40 MLOAD PUSH2 0x110 SWAP2 SWAP1 PUSH2 0x98B JUMP JUMPDEST PUSH1 0x40 MLOAD DUP1 SWAP2 SUB SWAP1 RETURN JUMPDEST CALLVALUE DUP1 ISZERO PUSH2 0x125 JUMPI PUSH1 0x0 DUP1 REVERT JUMPDEST POP PUSH2 0x12E PUSH2 0x32F JUMP JUMPDEST STOP JUMPDEST CALLVALUE DUP1 ISZERO PUSH2 0x13C JUMPI PUSH1 0x0 DUP1 REVERT JUMPDEST POP PUSH2 0x145 PUSH2 0x3E6 JUMP JUMPDEST PUSH1 0x40 MLOAD PUSH2 0x152 SWAP2 SWAP1 PUSH2 0xAB1 JUMP JUMPDEST PUSH1 0x40 MLOAD DUP1 SWAP2 SUB SWAP1 RETURN JUMPDEST CALLVALUE DUP1 ISZERO PUSH2 0x167 JUMPI PUSH1 0x0 DUP1 REVERT JUMPDEST POP PUSH2 0x182 PUSH1 0x4 DUP1 CALLDATASIZE SUB DUP2 ADD SWAP1 PUSH2 0x17D SWAP2 SWAP1 PUSH2 0xB0A JUMP JUMPDEST PUSH2 0x40F JUMP JUMPDEST STOP JUMPDEST CALLVALUE DUP1 ISZERO PUSH2 0x190 JUMPI PUSH1 0x0 DUP1 REVERT JUMPDEST POP PUSH2 0x1AB PUSH1 0x4 DUP1 CALLDATASIZE SUB DUP2 ADD SWAP1 PUSH2 0x1A6 SWAP2 SWAP1 PUSH2 0xA75 JUMP JUMPDEST PUSH2 0x595 JUMP JUMPDEST STOP JUMPDEST PUSH2 0x1B5 PUSH2 0x68C JUMP JUMPDEST PUSH20 0xFFFFFFFFFFFFFFFFFFFFFFFFFFFFFFFFFFFFFFFF AND PUSH2 0x1D3 PUSH2 0x3E6 JUMP JUMPDEST PUSH20 0xFFFFFFFFFFFFFFFFFFFFFFFFFFFFFFFFFFFFFFFF AND EQ PUSH2 0x229 JUMPI PUSH1 0x40 MLOAD PUSH32 0x8C379A000000000000000000000000000000000000000000000000000000000 DUP2 MSTORE PUSH1 0x4 ADD PUSH2 0x220 SWAP1 PUSH2 0xBA7 JUMP JUMPDEST PUSH1 0x40 MLOAD DUP1 SWAP2 SUB SWAP1 REVERT JUMPDEST CALLER PUSH20 0xFFFFFFFFFFFFFFFFFFFFFFFFFFFFFFFFFFFFFFFF AND DUP3 PUSH20 0xFFFFFFFFFFFFFFFFFFFFFFFFFFFFFFFFFFFFFFFF AND PUSH32 0x3691D1A86D99355E52B689CA70A7BDF6D80763237A6AA06E5FA43964EAC7244B PUSH1 0x1 PUSH1 0x0 DUP7 PUSH20 0xFFFFFFFFFFFFFFFFFFFFFFFFFFFFFFFFFFFFFFFF AND PUSH20 0xFFFFFFFFFFFFFFFFFFFFFFFFFFFFFFFFFFFFFFFF AND DUP2 MSTORE PUSH1 0x20 ADD SWAP1 DUP2 MSTORE PUSH1 0x20 ADD PUSH1 0x0 KECCAK256 SLOAD DUP5 PUSH1 0x40 MLOAD PUSH2 0x2C7 SWAP3 SWAP2 SWAP1 PUSH2 0xBC7 JUMP JUMPDEST PUSH1 0x40 MLOAD DUP1 SWAP2 SUB SWAP1 LOG3 DUP1 PUSH1 0x1 PUSH1 0x0 DUP5 PUSH20 0xFFFFFFFFFFFFFFFFFFFFFFFFFFFFFFFFFFFFFFFF AND PUSH20 0xFFFFFFFFFFFFFFFFFFFFFFFFFFFFFFFFFFFFFFFF AND DUP2 MSTORE PUSH1 0x20 ADD SWAP1 DUP2 MSTORE PUSH1 0x20 ADD PUSH1 0x0 KECCAK256 DUP2 SWAP1 SSTORE POP POP POP JUMP JUMPDEST PUSH1 0x1 PUSH1 0x20 MSTORE DUP1 PUSH1 0x0 MSTORE PUSH1 0x40 PUSH1 0x0 KECCAK256 PUSH1 0x0 SWAP2 POP SWAP1 POP SLOAD DUP2 JUMP JUMPDEST PUSH2 0x337 PUSH2 0x68C JUMP JUMPDEST PUSH20 0xFFFFFFFFFFFFFFFFFFFFFFFFFFFFFFFFFFFFFFFF AND PUSH2 0x355 PUSH2 0x3E6 JUMP JUMPDEST PUSH20 0xFFFFFFFFFFFFFFFFFFFFFFFFFFFFFFFFFFFFFFFF AND EQ PUSH2 0x3AB JUMPI PUSH1 0x40 MLOAD PUSH32 0x8C379A000000000000000000000000000000000000000000000000000000000 DUP2 MSTORE PUSH1 0x4 ADD PUSH2 0x3A2 SWAP1 PUSH2 0xBA7 JUMP JUMPDEST PUSH1 0x40 MLOAD DUP1 SWAP2 SUB SWAP1 REVERT JUMPDEST PUSH1 0x40 MLOAD PUSH32 0x8C379A000000000000000000000000000000000000000000000000000000000 DUP2 MSTORE PUSH1 0x4 ADD PUSH2 0x3DD SWAP1 PUSH2 0xC3C JUMP JUMPDEST PUSH1 0x40 MLOAD DUP1 SWAP2 SUB SWAP1 REVERT JUMPDEST PUSH1 0x0 DUP1 PUSH1 0x0 SWAP1 SLOAD SWAP1 PUSH2 0x100 EXP SWAP1 DIV PUSH20 0xFFFFFFFFFFFFFFFFFFFFFFFFFFFFFFFFFFFFFFFF AND SWAP1 POP SWAP1 JUMP JUMPDEST DUP1 PUSH2 0x418 PUSH2 0x694 JUMP JUMPDEST DUP1 PUSH2 0x462 JUMPI POP DUP1 PUSH1 0x1 PUSH1 0x0 CALLER PUSH20 0xFFFFFFFFFFFFFFFFFFFFFFFFFFFFFFFFFFFFFFFF AND PUSH20 0xFFFFFFFFFFFFFFFFFFFFFFFFFFFFFFFFFFFFFFFF AND DUP2 MSTORE PUSH1 0x20 ADD SWAP1 DUP2 MSTORE PUSH1 0x20 ADD PUSH1 0x0 KECCAK256 SLOAD LT ISZERO JUMPDEST PUSH2 0x4A1 JUMPI PUSH1 0x40 MLOAD PUSH32 0x8C379A000000000000000000000000000000000000000000000000000000000 DUP2 MSTORE PUSH1 0x4 ADD PUSH2 0x498 SWAP1 PUSH2 0xCA8 JUMP JUMPDEST PUSH1 0x40 MLOAD DUP1 SWAP2 SUB SWAP1 REVERT JUMPDEST SELFBALANCE DUP3 GT ISZERO PUSH2 0x4E4 JUMPI PUSH1 0x40 MLOAD PUSH32 0x8C379A000000000000000000000000000000000000000000000000000000000 DUP2 MSTORE PUSH1 0x4 ADD PUSH2 0x4DB SWAP1 PUSH2 0xD3A JUMP JUMPDEST PUSH1 0x40 MLOAD DUP1 SWAP2 SUB SWAP1 REVERT JUMPDEST PUSH2 0x4EC PUSH2 0x694 JUMP JUMPDEST PUSH2 0x4FB JUMPI PUSH2 0x4FA CALLER DUP4 PUSH2 0x6D1 JUMP JUMPDEST JUMPDEST DUP3 PUSH20 0xFFFFFFFFFFFFFFFFFFFFFFFFFFFFFFFFFFFFFFFF AND PUSH32 0x7F51D406915971D4AC1C91AF96BE5187EA6AB64753785AAD519A533DEF80A41E DUP4 PUSH1 0x40 MLOAD PUSH2 0x541 SWAP2 SWAP1 PUSH2 0x98B JUMP JUMPDEST PUSH1 0x40 MLOAD DUP1 SWAP2 SUB SWAP1 LOG2 DUP3 PUSH20 0xFFFFFFFFFFFFFFFFFFFFFFFFFFFFFFFFFFFFFFFF AND PUSH2 0x8FC DUP4 SWAP1 DUP2 ISZERO MUL SWAP1 PUSH1 0x40 MLOAD PUSH1 0x0 PUSH1 0x40 MLOAD DUP1 DUP4 SUB DUP2 DUP6 DUP9 DUP9 CALL SWAP4 POP POP POP POP ISZERO DUP1 ISZERO PUSH2 0x58F JUMPI RETURNDATASIZE PUSH1 0x0 DUP1 RETURNDATACOPY RETURNDATASIZE PUSH1 0x0 REVERT JUMPDEST POP POP POP POP JUMP JUMPDEST PUSH2 0x59D PUSH2 0x68C JUMP JUMPDEST PUSH20 0xFFFFFFFFFFFFFFFFFFFFFFFFFFFFFFFFFFFFFFFF AND PUSH2 0x5BB PUSH2 0x3E6 JUMP JUMPDEST PUSH20 0xFFFFFFFFFFFFFFFFFFFFFFFFFFFFFFFFFFFFFFFF AND EQ PUSH2 0x611 JUMPI PUSH1 0x40 MLOAD PUSH32 0x8C379A000000000000000000000000000000000000000000000000000000000 DUP2 MSTORE PUSH1 0x4 ADD PUSH2 0x608 SWAP1 PUSH2 0xBA7 JUMP JUMPDEST PUSH1 0x40 MLOAD DUP1 SWAP2 SUB SWAP1 REVERT JUMPDEST PUSH1 0x0 PUSH20 0xFFFFFFFFFFFFFFFFFFFFFFFFFFFFFFFFFFFFFFFF AND DUP2 PUSH20 0xFFFFFFFFFFFFFFFFFFFFFFFFFFFFFFFFFFFFFFFF AND SUB PUSH2 0x680 JUMPI PUSH1 0x40 MLOAD PUSH32 0x8C379A000000000000000000000000000000000000000000000000000000000 DUP2 MSTORE PUSH1 0x4 ADD PUSH2 0x677 SWAP1 PUSH2 0xDCC JUMP JUMPDEST PUSH1 0x40 MLOAD DUP1 SWAP2 SUB SWAP1 REVERT JUMPDEST PUSH2 0x689 DUP2 PUSH2 0x8AE JUMP JUMPDEST POP JUMP JUMPDEST PUSH1 0x0 CALLER SWAP1 POP SWAP1 JUMP JUMPDEST PUSH1 0x0 CALLER PUSH20 0xFFFFFFFFFFFFFFFFFFFFFFFFFFFFFFFFFFFFFFFF AND PUSH2 0x6B5 PUSH2 0x3E6 JUMP JUMPDEST PUSH20 0xFFFFFFFFFFFFFFFFFFFFFFFFFFFFFFFFFFFFFFFF AND EQ SWAP1 POP SWAP1 JUMP JUMPDEST DUP1 PUSH2 0x6DA PUSH2 0x694 JUMP JUMPDEST DUP1 PUSH2 0x724 JUMPI POP DUP1 PUSH1 0x1 PUSH1 0x0 CALLER PUSH20 0xFFFFFFFFFFFFFFFFFFFFFFFFFFFFFFFFFFFFFFFF AND PUSH20 0xFFFFFFFFFFFFFFFFFFFFFFFFFFFFFFFFFFFFFFFF AND DUP2 MSTORE PUSH1 0x20 ADD SWAP1 DUP2 MSTORE PUSH1 0x20 ADD PUSH1 0x0 KECCAK256 SLOAD LT ISZERO JUMPDEST PUSH2 0x763 JUMPI PUSH1 0x40 MLOAD PUSH32 0x8C379A000000000000000000000000000000000000000000000000000000000 DUP2 MSTORE PUSH1 0x4 ADD PUSH2 0x75A SWAP1 PUSH2 0xCA8 JUMP JUMPDEST PUSH1 0x40 MLOAD DUP1 SWAP2 SUB SWAP1 REVERT JUMPDEST CALLER PUSH20 0xFFFFFFFFFFFFFFFFFFFFFFFFFFFFFFFFFFFFFFFF AND DUP4 PUSH20 0xFFFFFFFFFFFFFFFFFFFFFFFFFFFFFFFFFFFFFFFF AND PUSH32 0x3691D1A86D99355E52B689CA70A7BDF6D80763237A6AA06E5FA43964EAC7244B PUSH1 0x1 PUSH1 0x0 DUP8 PUSH20 0xFFFFFFFFFFFFFFFFFFFFFFFFFFFFFFFFFFFFFFFF AND PUSH20 0xFFFFFFFFFFFFFFFFFFFFFFFFFFFFFFFFFFFFFFFF AND DUP2 MSTORE PUSH1 0x20 ADD SWAP1 DUP2 MSTORE PUSH1 0x20 ADD PUSH1 0x0 KECCAK256 SLOAD DUP6 PUSH1 0x1 PUSH1 0x0 DUP10 PUSH20 0xFFFFFFFFFFFFFFFFFFFFFFFFFFFFFFFFFFFFFFFF AND PUSH20 0xFFFFFFFFFFFFFFFFFFFFFFFFFFFFFFFFFFFFFFFF AND DUP2 MSTORE PUSH1 0x20 ADD SWAP1 DUP2 MSTORE PUSH1 0x20 ADD PUSH1 0x0 KECCAK256 SLOAD PUSH2 0x83D SWAP2 SWAP1 PUSH2 0xE1B JUMP JUMPDEST PUSH1 0x40 MLOAD PUSH2 0x84B SWAP3 SWAP2 SWAP1 PUSH2 0xBC7 JUMP JUMPDEST PUSH1 0x40 MLOAD DUP1 SWAP2 SUB SWAP1 LOG3 DUP2 PUSH1 0x1 PUSH1 0x0 DUP6 PUSH20 0xFFFFFFFFFFFFFFFFFFFFFFFFFFFFFFFFFFFFFFFF AND PUSH20 0xFFFFFFFFFFFFFFFFFFFFFFFFFFFFFFFFFFFFFFFF AND DUP2 MSTORE PUSH1 0x20 ADD SWAP1 DUP2 MSTORE PUSH1 0x20 ADD PUSH1 0x0 KECCAK256 PUSH1 0x0 DUP3 DUP3 SLOAD PUSH2 0x8A2 SWAP2 SWAP1 PUSH2 0xE1B JUMP JUMPDEST SWAP3 POP POP DUP2 SWAP1 SSTORE POP POP POP POP JUMP JUMPDEST PUSH1 0x0 DUP1 PUSH1 0x0 SWAP1 SLOAD SWAP1 PUSH2 0x100 EXP SWAP1 DIV PUSH20 0xFFFFFFFFFFFFFFFFFFFFFFFFFFFFFFFFFFFFFFFF AND SWAP1 POP DUP2 PUSH1 0x0 DUP1 PUSH2 0x100 EXP DUP2 SLOAD DUP2 PUSH20 0xFFFFFFFFFFFFFFFFFFFFFFFFFFFFFFFFFFFFFFFF MUL NOT AND SWAP1 DUP4 PUSH20 0xFFFFFFFFFFFFFFFFFFFFFFFFFFFFFFFFFFFFFFFF AND MUL OR SWAP1 SSTORE POP DUP2 PUSH20 0xFFFFFFFFFFFFFFFFFFFFFFFFFFFFFFFFFFFFFFFF AND DUP2 PUSH20 0xFFFFFFFFFFFFFFFFFFFFFFFFFFFFFFFFFFFFFFFF AND PUSH32 0x8BE0079C531659141344CD1FD0A4F28419497F9722A3DAAFE3B4186F6B6457E0 PUSH1 0x40 MLOAD PUSH1 0x40 MLOAD DUP1 SWAP2 SUB SWAP1 LOG3 POP POP JUMP JUMPDEST PUSH1 0x0 DUP2 SWAP1 POP SWAP2 SWAP1 POP JUMP JUMPDEST PUSH2 0x985 DUP2 PUSH2 0x972 JUMP JUMPDEST DUP3 MSTORE POP POP JUMP JUMPDEST PUSH1 0x0 PUSH1 0x20 DUP3 ADD SWAP1 POP PUSH2 0x9A0 PUSH1 0x0 DUP4 ADD DUP5 PUSH2 0x97C JUMP JUMPDEST SWAP3 SWAP2 POP POP JUMP JUMPDEST PUSH1 0x0 DUP1 REVERT JUMPDEST PUSH1 0x0 PUSH20 0xFFFFFFFFFFFFFFFFFFFFFFFFFFFFFFFFFFFFFFFF DUP3 AND SWAP1 POP SWAP2 SWAP1 POP JUMP JUMPDEST PUSH1 0x0 PUSH2 0x9D6 DUP3 PUSH2 0x9AB JUMP JUMPDEST SWAP1 POP SWAP2 SWAP1 POP JUMP JUMPDEST PUSH2 0x9E6 DUP2 PUSH2 0x9CB JUMP JUMPDEST DUP2 EQ PUSH2 0x9F1 JUMPI PUSH1 0x0 DUP1 REVERT JUMPDEST POP JUMP JUMPDEST PUSH1 0x0 DUP2 CALLDATALOAD SWAP1 POP PUSH2 0xA03 DUP2 PUSH2 0x9DD JUMP JUMPDEST SWAP3 SWAP2 POP POP JUMP JUMPDEST PUSH2 0xA12 DUP2 PUSH2 0x972 JUMP JUMPDEST DUP2 EQ PUSH2 0xA1D JUMPI PUSH1 0x0 DUP1 REVERT JUMPDEST POP JUMP JUMPDEST PUSH1 0x0 DUP2 CALLDATALOAD SWAP1 POP PUSH2 0xA2F DUP2 PUSH2 0xA09 JUMP JUMPDEST SWAP3 SWAP2 POP POP JUMP JUMPDEST PUSH1 0x0 DUP1 PUSH1 0x40 DUP4 DUP6 SUB SLT ISZERO PUSH2 0xA4C JUMPI PUSH2 0xA4B PUSH2 0x9A6 JUMP JUMPDEST JUMPDEST PUSH1 0x0 PUSH2 0xA5A DUP6 DUP3 DUP7 ADD PUSH2 0x9F4 JUMP JUMPDEST SWAP3 POP POP PUSH1 0x20 PUSH2 0xA6B DUP6 DUP3 DUP7 ADD PUSH2 0xA20 JUMP JUMPDEST SWAP2 POP POP SWAP3 POP SWAP3 SWAP1 POP JUMP JUMPDEST PUSH1 0x0 PUSH1 0x20 DUP3 DUP5 SUB SLT ISZERO PUSH2 0xA8B JUMPI PUSH2 0xA8A PUSH2 0x9A6 JUMP JUMPDEST JUMPDEST PUSH1 0x0 PUSH2 0xA99 DUP5 DUP3 DUP6 ADD PUSH2 0x9F4 JUMP JUMPDEST SWAP2 POP POP SWAP3 SWAP2 POP POP JUMP JUMPDEST PUSH2 0xAAB DUP2 PUSH2 0x9CB JUMP JUMPDEST DUP3 MSTORE POP POP JUMP JUMPDEST PUSH1 0x0 PUSH1 0x20 DUP3 ADD SWAP1 POP PUSH2 0xAC6 PUSH1 0x0 DUP4 ADD DUP5 PUSH2 0xAA2 JUMP JUMPDEST SWAP3 SWAP2 POP POP JUMP JUMPDEST PUSH1 0x0 PUSH2 0xAD7 DUP3 PUSH2 0x9AB JUMP JUMPDEST SWAP1 POP SWAP2 SWAP1 POP JUMP JUMPDEST PUSH2 0xAE7 DUP2 PUSH2 0xACC JUMP JUMPDEST DUP2 EQ PUSH2 0xAF2 JUMPI PUSH1 0x0 DUP1 REVERT JUMPDEST POP JUMP JUMPDEST PUSH1 0x0 DUP2 CALLDATALOAD SWAP1 POP PUSH2 0xB04 DUP2 PUSH2 0xADE JUMP JUMPDEST SWAP3 SWAP2 POP POP JUMP JUMPDEST PUSH1 0x0 DUP1 PUSH1 0x40 DUP4 DUP6 SUB SLT ISZERO PUSH2 0xB21 JUMPI PUSH2 0xB20 PUSH2 0x9A6 JUMP JUMPDEST JUMPDEST PUSH1 0x0 PUSH2 0xB2F DUP6 DUP3 DUP7 ADD PUSH2 0xAF5 JUMP JUMPDEST SWAP3 POP POP PUSH1 0x20 PUSH2 0xB40 DUP6 DUP3 DUP7 ADD PUSH2 0xA20 JUMP JUMPDEST SWAP2 POP POP SWAP3 POP SWAP3 SWAP1 POP JUMP JUMPDEST PUSH1 0x0 DUP3 DUP3 MSTORE PUSH1 0x20 DUP3 ADD SWAP1 POP SWAP3 SWAP2 POP POP JUMP JUMPDEST PUSH32 0x4F776E61626C653A2063616C6C6572206973206E6F7420746865206F776E6572 PUSH1 0x0 DUP3 ADD MSTORE POP JUMP JUMPDEST PUSH1 0x0 PUSH2 0xB91 PUSH1 0x20 DUP4 PUSH2 0xB4A JUMP JUMPDEST SWAP2 POP PUSH2 0xB9C DUP3 PUSH2 0xB5B JUMP JUMPDEST PUSH1 0x20 DUP3 ADD SWAP1 POP SWAP2 SWAP1 POP JUMP JUMPDEST PUSH1 0x0 PUSH1 0x20 DUP3 ADD SWAP1 POP DUP2 DUP2 SUB PUSH1 0x0 DUP4 ADD MSTORE PUSH2 0xBC0 DUP2 PUSH2 0xB84 JUMP JUMPDEST SWAP1 POP SWAP2 SWAP1 POP JUMP JUMPDEST PUSH1 0x0 PUSH1 0x40 DUP3 ADD SWAP1 POP PUSH2 0xBDC PUSH1 0x0 DUP4 ADD DUP6 PUSH2 0x97C JUMP JUMPDEST PUSH2 0xBE9 PUSH1 0x20 DUP4 ADD DUP5 PUSH2 0x97C JUMP JUMPDEST SWAP4 SWAP3 POP POP POP JUMP JUMPDEST PUSH32 0x63616E27742072656E6F756E63654F776E657273686970206865726500000000 PUSH1 0x0 DUP3 ADD MSTORE POP JUMP JUMPDEST PUSH1 0x0 PUSH2 0xC26 PUSH1 0x1C DUP4 PUSH2 0xB4A JUMP JUMPDEST SWAP2 POP PUSH2 0xC31 DUP3 PUSH2 0xBF0 JUMP JUMPDEST PUSH1 0x20 DUP3 ADD SWAP1 POP SWAP2 SWAP1 POP JUMP JUMPDEST PUSH1 0x0 PUSH1 0x20 DUP3 ADD SWAP1 POP DUP2 DUP2 SUB PUSH1 0x0 DUP4 ADD MSTORE PUSH2 0xC55 DUP2 PUSH2 0xC19 JUMP JUMPDEST SWAP1 POP SWAP2 SWAP1 POP JUMP JUMPDEST PUSH32 0x596F7520617265206E6F7420616C6C6F77656421000000000000000000000000 PUSH1 0x0 DUP3 ADD MSTORE POP JUMP JUMPDEST PUSH1 0x0 PUSH2 0xC92 PUSH1 0x14 DUP4 PUSH2 0xB4A JUMP JUMPDEST SWAP2 POP PUSH2 0xC9D DUP3 PUSH2 0xC5C JUMP JUMPDEST PUSH1 0x20 DUP3 ADD SWAP1 POP SWAP2 SWAP1 POP JUMP JUMPDEST PUSH1 0x0 PUSH1 0x20 DUP3 ADD SWAP1 POP DUP2 DUP2 SUB PUSH1 0x0 DUP4 ADD MSTORE PUSH2 0xCC1 DUP2 PUSH2 0xC85 JUMP JUMPDEST SWAP1 POP SWAP2 SWAP1 POP JUMP JUMPDEST PUSH32 0x436F6E747261637420646F65736E2774206F776E20656E6F756768206D6F6E65 PUSH1 0x0 DUP3 ADD MSTORE PUSH32 0x7900000000000000000000000000000000000000000000000000000000000000 PUSH1 0x20 DUP3 ADD MSTORE POP JUMP JUMPDEST PUSH1 0x0 PUSH2 0xD24 PUSH1 0x21 DUP4 PUSH2 0xB4A JUMP JUMPDEST SWAP2 POP PUSH2 0xD2F DUP3 PUSH2 0xCC8 JUMP JUMPDEST PUSH1 0x40 DUP3 ADD SWAP1 POP SWAP2 SWAP1 POP JUMP JUMPDEST PUSH1 0x0 PUSH1 0x20 DUP3 ADD SWAP1 POP DUP2 DUP2 SUB PUSH1 0x0 DUP4 ADD MSTORE PUSH2 0xD53 DUP2 PUSH2 0xD17 JUMP JUMPDEST SWAP1 POP SWAP2 SWAP1 POP JUMP JUMPDEST PUSH32 0x4F776E61626C653A206E6577206F776E657220697320746865207A65726F2061 PUSH1 0x0 DUP3 ADD MSTORE PUSH32 0x6464726573730000000000000000000000000000000000000000000000000000 PUSH1 0x20 DUP3 ADD MSTORE POP JUMP JUMPDEST PUSH1 0x0 PUSH2 0xDB6 PUSH1 0x26 DUP4 PUSH2 0xB4A JUMP JUMPDEST SWAP2 POP PUSH2 0xDC1 DUP3 PUSH2 0xD5A JUMP JUMPDEST PUSH1 0x40 DUP3 ADD SWAP1 POP SWAP2 SWAP1 POP JUMP JUMPDEST PUSH1 0x0 PUSH1 0x20 DUP3 ADD SWAP1 POP DUP2 DUP2 SUB PUSH1 0x0 DUP4 ADD MSTORE PUSH2 0xDE5 DUP2 PUSH2 0xDA9 JUMP JUMPDEST SWAP1 POP SWAP2 SWAP1 POP JUMP JUMPDEST PUSH32 0x4E487B7100000000000000000000000000000000000000000000000000000000 PUSH1 0x0 MSTORE PUSH1 0x11 PUSH1 0x4 MSTORE PUSH1 0x24 PUSH1 0x0 REVERT JUMPDEST PUSH1 0x0 PUSH2 0xE26 DUP3 PUSH2 0x972 JUMP JUMPDEST SWAP2 POP PUSH2 0xE31 DUP4 PUSH2 0x972 JUMP JUMPDEST SWAP3 POP DUP3 DUP3 LT ISZERO PUSH2 0xE44 JUMPI PUSH2 0xE43 PUSH2 0xDEC JUMP JUMPDEST JUMPDEST DUP3 DUP3 SUB SWAP1 POP SWAP3 SWAP2 POP POP JUMP INVALID LOG2 PUSH5 0x6970667358 0x22 SLT KECCAK256 0x28 PUSH7 0x74312B94DE34C9 DUP15 SWAP11 CALLER MUL PUSH24 0x1AAB4D764D6ACB62A6820F48659A5D45191A64736F6C6343 STOP ADDMOD 0xD STOP CALLER "
				},
				"gasEstimates": {
					"creation": {
						"codeDepositCost": "743400",
						"executionCost": "infinite",
						"totalCost": "infinite"
					},
					"external": {
						"allowance(address)": "2814",
						"owner()": "2566",
						"renounceOwnership()": "2696",
						"setAllowance(address,uint256)": "infinite",
						"transferOwnership(address)": "30808",
						"withdrawMoney(address,uint256)": "infinite"
					}
				},
				"methodIdentifiers": {
					"allowance(address)": "3e5beab9",
					"owner()": "8da5cb5b",
					"renounceOwnership()": "715018a6",
					"setAllowance(address,uint256)": "310ec4a7",
					"transferOwnership(address)": "f2fde38b",
					"withdrawMoney(address,uint256)": "f274c897"
				}
			},
			"storageLayout": {
				"storage": [
					{
						"astId": 199,
						"contract": "LAB 2/Sharedwallet.sol:SharedWallet",
						"label": "_owner",
						"offset": 0,
						"slot": "0",
						"type": "t_address"
					},
					{
						"astId": 18,
						"contract": "LAB 2/Sharedwallet.sol:SharedWallet",
						"label": "allowance",
						"offset": 0,
						"slot": "1",
						"type": "t_mapping(t_address,t_uint256)"
					}
				],
				"types": {
					"t_address": {
						"encoding": "inplace",
						"label": "address",
						"numberOfBytes": "20"
					},
					"t_mapping(t_address,t_uint256)": {
						"encoding": "mapping",
						"key": "t_address",
						"label": "mapping(address => uint256)",
						"numberOfBytes": "32",
						"value": "t_uint256"
					},
					"t_uint256": {
						"encoding": "inplace",
						"label": "uint256",
						"numberOfBytes": "32"
					}
				}
			},
			"userdoc": {
				"kind": "user",
				"methods": {},
				"version": 1
			}
		}
	}
}